:020000040800F2
:1040000000400020094100080D4100080F41000850
:1040100000000000000000000000000000000000A0
:10402000000000000000000000000000294100081E
:1040300000000000000000002B41000801C2000841
:104040000541000800000000ADD00008054100084F
:1040500005410008054100080541000881460008A7
:104060000000000005410008054100080541000866
:104070000541000805410008054100080000000056
:1040800005410008054100080541000805410008F8
:1040900005410008054100080541000805410008E8
:1040A00005410008054100080541000805410008D8
:1040B0007DD10008B1D100080000000005410008D2
:1040C00008B50BF0EAFB0022094B0A49D3188B42D2
:1040D00004D20949895804321960F5E7074B084AA8
:1040E000934202D2002204C3F9E707F0A7FCFEE7DF
:1040F0001401002044020020B05A010848020020A8
:1041000088140020FEE7000009480047FEE704206D
:104110007146084202D0EFF3098001E0EFF3088016
:104120007146044A1047FEE7FEE7FEE770470000CD
:08413000C1400008274100080E
:10413800B05A01081401002044020020480200205F
:0441480088140020B7
:10414C00044B1A69120603D5034A5A60034A5A6093
:10415C007047C0460020024023016745AB89EFCD74
:10416C00184AFF23F0B5101C002617491478174D78
:10417C000B702A78FF2A10D06F78002F0DD1FF2BEF
:10418C0009D0944202D9A71A022F04DC944204D21B
:10419C00171B012F01DC141C331C80221201AD18DB
:1041AC00012E01D00126E4E70B700470FF2B01D126
:1041BC0000230B700B78054ADB029B18044A136032
:1041CC00F0BDC046750600207406002000F0010802
:1041DC0070060020F0B5394B87B003901868019138
:1041EC004018039904920BF056FB002863D0344B13
:1041FC001B780133DCB2A31E5A1E93415B421C4058
:10420C00304BEF221B78E6020133DFB20023BA42B7
:10421C005B415B421F40FFF793FF2B4BF31802935C
:10422C002A4B029DF3180593059B9D420ED2281C28
:10423C000CF014FC26480CF0A1FB0221254A136952
:10424C008B43136180231B01ED18EDE7F32500224E
:10425C00214BED00F618002D01D13A4310E0012D51
:10426C000ED0019B9D4207DB04995B189D4203DA3B
:10427C00039B01995B1A01E0104B1B685B5D1A43B1
:10428C0003232B4008D1511C03D00220311C0CF00D
:10429C009DFB043E002200E01202013DDBD2802196
:1042AC000C4A13690B431361054B029A1C70054BA6
:1042BC001F70024B1A6007B0F0BDC046700600209C
:1042CC00740600207506002000F0010800F80108B3
:1042DC0050C300000020024098F701083A4BF0B59B
:1042EC001A68002385B08B4205DA1418E45CFF2CA5
:1042FC0003D10133F7E78B4264D0344B03911D7823
:10430C0001900135EDB2AB1E5A1E93415B421D402C
:10431C002F4BEF221C7800230134E4B2A2425B4104
:10432C005B421C40FFF70CFF2A4BEE02F318009384
:10433C00294B009FF3180293029B9F420ED2381C0C
:10434C000CF08CFB25480CF019FB0221244A136954
:10435C008B43136180231B01FF18EDE7F327002229
:10436C00204BFF00F618002F01D122430FE0012F44
:10437C000DD0019B9F4206DB039B01995B189F426A
:10438C0001DAFF2302E0104B1B68DB5D1A430323A9
:10439C003B4008D1511C03D00220311C0CF016FB01
:1043AC00043E002200E01202013FDCD280210C4AC4
:1043BC0013690B431361054B009A1D70044B1C7061
:1043CC00014B1A6005B0F0BD700600207406002089
:1043DC007506002000F0010800F8010850C3000029
:1043EC000020024098F7010808B501F0DBFF00231C
:1043FC00034A1370034A1370034A044B1A6008BD36
:10440C00740600207506002000F0010870060020DC
:10441C00704770470022014B1A70704776060020D7
:10442C0010B5041E1CD00F490A7853B2002B14DBB4
:10443C00531CDBB20B700C4988540D2806D15AB2B0
:10444C00002A01DB0022CA5407F0ECFA074BDA69A8
:10445C001206FBD5A4B21C8502E00D28F6D1F3E7B9
:10446C0010BDC046760600207706002000480040AC
:10447C0008B503200249034A08F0B4FE08BDC04643
:10448C002D4400082144000810B5074C2378002B5C
:10449C0009D0064906480BF094F82178054802F03B
:1044AC00B5FB0023237010BD760600207806002093
:1044BC002040010877060020034B0822002801D079
:1044CC009A6100E09A62704700040048F7B5052431
:1044DC00404A414E557813786A4255415C433F4AF5
:1044EC00EDB21268141932789A420DD00F22A178CD
:1044FC000A40042A01D0002D6BD00021384A02203A
:10450C001170337007F05CFE0F23A2781340042B5C
:10451C005FD8181C0DF0BAF9030316165400002DC1
:10452C000CD062782F4B1A7007F070FA0F23A27818
:10453C001340012B4DD10220C82124E0022007F0AA
:10454C003FFE3AE0264F002D0ED00022BA56002A2C
:10455C003FD1022B01D0244901E0FA21890002202D
:10456C00224A07F017FE34E00023FB560193012B7F
:10457C001AD0022B0FD0002B2BD123790220002B29
:10458C0003D0962138708900EAE707F019FE6278AB
:10459C00144B1A700EE02279124B1A7007F036FA8F
:1045AC00019807F00DFE07E08022E3785242134396
:1045BC000C4A137007F02AFA3D70FF23337008E0A1
:1045CC00002D01D0637800E0E378064A137007F001
:1045DC001DFAF7BDF7060020140100205002002040
:1045EC00550200204C02002088130000FD450008F5
:1045FC0038B51B4C2278FF2A31D005235343194A76
:10460C001268D3180F2299780A40012A04D0002A84
:10461C0025D0032A0BD922E05A78134B1A7007F0D5
:10462C00F5F902203221114A07F0B4FD17E00022FF
:10463C000F4DAA56002A0BD0022A10D15A780A4BD9
:10464C001A7007F0E3F900232B70FF33237006E098
:10465C00DA78054B1A7007F0D9F901232B7038BDA5
:10466C0014010020500200204C020020FD450008DF
:10467C005502002070B504240123A340194A516946
:10468C0019422BD05361184A231FD05CFF2825D028
:10469C00164B1D78164B1E680023DAB2AA421DD2A7
:1046AC000521013359430539715C8142F5D1FF2A4B
:1046BC0014D0902301095B03C91889020E690121EA
:1046CC000C4D0B1C2A700F220240934033405A1E93
:1046DC0093410220084A6B7007F05CFD01340F2CEB
:1046EC00CAD170BD000401402E40010854020020C4
:1046FC0050020020F7060020D9440008034B186034
:10470C00034B1960034B1A707047C04648020020D7
:10471C00500200205402002010B5054C20780028CF
:10472C0004D0044B1B6898470023237010BDC0466F
:10473C004C02002048020020F0B5437A85B0002BD3
:10474C003BD0019003A808F047F900221C4C1D4BEC
:10475C001D4D187826682F680094D3B283420ED270
:10476C00012191400E4208D091007958097A8C466B
:10477C00032164462140032902D00132EDE7FEE714
:10478C00019A527A013A9A4217DCDEB272B2002ACE
:10479C0011DB0123934000990968194209D02B6859
:1047AC009200D358002B04D05B68002B01D00398E7
:1047BC009847731EE9E708F015F905B0F0BDC0463F
:1047CC00580200205C02002060020020F7B5002295
:1047DC00051C154B154E164C186032602270019357
:1047EC002F68002F12D03B68002B08D0984701236C
:1047FC00184204D0227893403268134333602378F4
:10480C0004350133DBB223707B72E9E723780B2B81
:10481C0000DDFEE7074A9B18019A9B001268985826
:10482C00FFF78AFFF7BDC046600200205802002047
:10483C005C020020FFFFFF3F407A002808D00123D4
:10484C000138C0B28340181C024B1B681840C0B220
:10485C007047C04658020020437A10B5002B0FD089
:10486C000122013BDBB29A40064C131C2268002942
:10487C0001D0134301E09A43131C2360FFF75CFF44
:10488C0010BDC0465802002010B50C4A441C1378C9
:10489C005B009C4202DA4008107004E0012802D947
:1048AC00441E9C42F7DC1378081C002B04D0591EC4
:1048BC004B4259414942C8B210BDC0466502002066
:1048CC0070B5104B1A78104BD20709D51C781023F1
:1048DC000F221B1B0D4D121B5E005200745B0AE075
:1048EC001A78531E002B01D17D2206E0074D5C0087
:1048FC00023A645B5200525BA21A1B010A800370DD
:10490C0070BDC046FC060020040700206240010870
:10491C0037B560221A4D2B78134203D0012007F0D3
:10492C00F9FF1EE0DA0609D56B465C1D201C991DAB
:10493C00FFF7C6FF207807F0F5FF1FE01A07EDD44C
:10494C0004241C4010D0012007F0E4FF0D4B1A6822
:10495C000D4BD05CFF2804D0430040081818C0B29F
:10496C00E9E70A4B1878E6E7084B187807F0DAFF06
:10497C002B789B0702D5201C07F0CCFF37BDC04617
:10498C006702002070060020CE06000066020020A0
:10499C00022010B5064C2378184007D1032B01D800
:1049AC0007F0B8FF022223781343237010BDC046D2
:1049BC0067020020F7B5194C194D2378002B16D13E
:1049CC00184A1378013BDBB213701022002B0DD167
:1049DC002B7893432B70FFF79BFF134B1A681C1C0F
:1049EC00002A00D090470023236015E022706B460C
:1049FC005F1D9E1D381C311CFFF762FF2B781F2B8F
:104A0C0002D8387807F08EFF31880420074A07F067
:104A1C00C1FB2378013B2370F7BDC046040700207F
:104A2C0067020020FC06002000070020C149000896
:104A3C000123834070B5094ADDB2181C13781C1C85
:104A4C002C40661EB4418C4207D0002901D02B4368
:104A5C0000E083431370FFF75BFF70BD670200201B
:104A6C0010B5114B1B78012B09D0104B1B689B7890
:104A7C00DB0704D403200E490E4A07F08BFB0220FF
:104A8C000D4C237818400DD0032B02D8FF2007F0D3
:104A9C0041FF022320789843013B20709843434206
:104AAC005841C0B210BDC0466502002070060020FF
:104ABC00881300009D4900086702002013B541428D
:104ACC0041416B460122041CD81D084B1B689B7886
:104ADC0093430B4302210370FFF77CFB002C02D1A4
:104AEC00032007F06DFBFFF7BBFF13BD7006002022
:104AFC00054B1B68D878FF2803D0002802D1FF2073
:104B0C0000E064207047C0467006002013B56B4669
:104B1C00DC1D0D4B011C20701878FFF7B5FE0B4BFC
:104B2C00187007F0FFFE2378002B01D1013323709E
:104B3C002378FF2B01D100232370201C0321012299
:104B4C00FFF748FB002016BD64020020660200201F
:104B5C0070B5051CFFF7CCFF011C281CFFF794FE59
:104B6C000E4B041C19781E1C814214D00C48221CBC
:104B7C000AF027FD0B4B1B78002B02D0032007F00B
:104B8C001FFBFFF76DFF084B1B78012B02D8201C75
:104B9C0007F0C8FE3470054B1D7070BD6602002016
:104BAC003A400108650200206702002064020020E0
:104BBC00002008B5044B1870044B1870FFF7C8FFA1
:104BCC0007F0FAFC08BDC046650200206602002012
:104BDC0038B51024084A051C1378FF2023431370A2
:104BEC0007F098FE0622054B1A70054B1C70054BFE
:104BFC001D60FFF7DFFE38BD67020020FC060020B9
:104C0C00040700200007002008B50348FFF7DEFD6D
:104C1C0001F022F908BDC0468440010830B5124BA2
:104C2C0085B01C78002C1CD07F2500222540182D27
:104C3C0002D00732521BD2B2031C52B2002168467A
:104C4C0007F074FC68460949002207F049FB182D4F
:104C5C0001D1E40905D068460A210122044B07F072
:104C6C00DEFB05B030BDC04605070020F654010838
:104C7C00AC40010838B5184A1378141C002B04D129
:104C8C00137028E0062A0ED118237F211A1C0A4023
:104C9C00182AF7D18B4359424B41DB011343237044
:104CAC00FA2464000CE023700E2A06D10B48002174
:104CBC00FFF7D2FD002323700DE0013323708E2407
:104CCC00064D281CFFF738FD687A211C0C3040B2C9
:104CDC00034A07F05FFA38BD0507002018010020D1
:104CEC00814C000838B50A4C201CFFF7A5FD0028A4
:104CFC000DD10125074B8E211D70607A064A0C30B0
:104D0C0040B207F047FA201C291CFFF7A5FD38BD5F
:104D1C001801002005070020814C0008072208B567
:104D2C00024B1A70FFF7A6FF08BDC046050700200E
:104D3C000823182230B5051C0E208BB001AC637211
:104D4C00084B68441978084B5143591822720AF0E1
:104D5C00B1FD0021281C0A1C231C07F0C5FA0BB05E
:104D6C0030BDC04606070020B240010808B5064B0E
:104D7C00021C1878172800D9172119700348111C28
:104D8C00FFF76AFD08BDC04606070020240100207D
:104D9C00F0B5204987B00022061C07F0A1FA1E4B83
:104DAC0004AD1F881D4B9F4205D1281C1C490AF0DD
:104DBC00A0FD052020E03C21381C0CF07BFD3C21A3
:104DCC00C4B2381C0CF0ECFE164B1B685A79164B0F
:104DDC00D20708D4154B0B2C02D90C3C144BE4B263
:104DEC00002C00D10C3400910193281C0721114A8E
:104DFC00231C0AF0E9FCC0B2082300930C33019386
:104E0C0003900295301C00210222043307F030FB82
:104E1C0007B0F0BDF654010808070020FFFF0000A2
:104E2C000E43010870060020174501080C430108C9
:104E3C00CD4E0108144301087FB54D79041C0E1C9E
:104E4C00012D0BD12549002207F04AFA201C08211C
:104E5C002A1C234B07F0E3FA00203DE0214BB279EA
:104E6C001988214B99421AD1002A2DD0062A0FD825
:104E7C001A49002207F034FAB379201C013B1B4C71
:104E8C009B00082101221B5907F0C9FA462023E098
:104E9C00072A15D11149002207F022FA14E0002A42
:104EAC0015D0082A0AD8083A52B268460021231CA9
:104EBC0007F03CFB6846FFF76BFF03E0092A09D0BB
:104ECC00013575712C2007E09620400004E0FA2093
:104EDC00800001E0FA20C00004B070BDF654010857
:104EEC00B543010808070020FFFF0000F442010849
:104EFC0010B50B4C201CFFF79FFC00280FD0094B62
:104F0C001B789B0707D508480AF070FB074B01205C
:104F1C00198803F011FE201C0021FFF79DFC10BD29
:104F2C00300100200A0700201E430108080700205A
:104F3C0070B51E4C051C201CFFF77EFC002834D0DD
:104F4C001B4B01261A78101C30402ED0082D0DD08A
:104F5C00542D27D00020072D27D11648164D018837
:104F6C00A94201D1002106E0013104E01148018879
:104F7C00002915D1104901800221201C0A431A7006
:104F8C00FFF7DAFB607A0D490C3040B20C4A07F09F
:104F9C0001F9084B0020198803F0CEFD012004E034
:104FAC000139E8E7FFF7A4FF301C70BD3001002089
:104FBC000A070020080700209F050000B80B00001E
:104FCC00FD4E0008F0B50B260023051C0A21092014
:104FDC0089B01C4C6E4403AF23701A1C00970196C9
:104FEC006844694403F014FF3378FF2B06D1002D7D
:104FFC0026D10122144B52421A801AE004AE381CFE
:10500C00311C06F055FF3C22B37853437278D31809
:10501C000D4A1380002D0CD0012223780B49134329
:10502C0023700B4B0B4A587A0C3040B207F0B2F895
:10503C0002E00848FFF7CCFD05480121FFF70CFC06
:10504C0009B0F0BD0A07002008070020B80B0000CB
:10505C0030010020FD4E000830B587B0041C6846B6
:10506C0007F0C8FF00281FD1201C03F037FD7E225B
:10507C0003780E4C9343012B0ED1694603F076FA5C
:10508C0002AD0190291C01A806F012FF3C22AB785E
:10509C0053436A78D31801E001235B420448022190
:1050AC00044A238000F0C4FA07B030BD0807002082
:1050BC00B80B0000454E000830B5051C0E20182218
:1050CC0008238BB001AC68440649227263720AF063
:1050DC00F1FB0021281C0A1C231C07F005F90BB05E
:1050EC0030BDC0466343010810B5094C201CFFF7C6
:1050FC00A3FB41424141201CC9B2FFF7ADFBFA2191
:10510C00607A49000C3040B2024A07F043F810BDF7
:10511C003C010020F5500008031C591E8B4170B552
:10512C00104ADBB2167813709E4218D0041E0E4D36
:10513C000CD10E4805F03AFD687A0C3040B207F0FD
:10514C003FF8281C211CFFF787FB08E0FA21687A3E
:10515C0049000C3040B2064A07F01CF8F1E7301C4D
:10516C0070BDC046100700203C0100205B430108C5
:10517C00F550000801207047FF230122F0B58DB0D7
:10518C0008AFBB724C4B3A727A72051C58784B497B
:10519C001B78400702D55A4253410AE0052B07D829
:1051AC00101C9840031C2720034201D00A7001E018
:1051BC0000230B700D2602ABF61806AB00930F23E1
:1051CC0002AA9B1801930E239B180022191C301C59
:1051DC00131C03F01DFE3378394C002B1ED002AA91
:1051EC00927BFF2A06D0062B02D1364B1B7816E099
:1051FC00012314E002ABDB7BFF2B0FD007A807F0D9
:10520C00F9FE3378012B09D1079A069B2E499B1A7C
:10521C000022D80F99425041031C00E00023237058
:10522C002A4B1E78002E31D0731EDBB20393002361
:10523C0002936B461B7A07AC237000270123281CB2
:10524C00A370211C06333A1CE370677007F048F812
:10525C00039B072B05D809239B1B63706B461B7B99
:10526C0005E0039B67700F2B03D811239B1BE37086
:10527C0000E0E770281C211CFF2207F031F8029B8C
:10528C001733DBB202932E2BD3D108E02378002BFB
:10529C0005D0281C172107223B1C07F025F8074BCB
:1052AC001B78002B05D0281C1721002208AB07F017
:1052BC001BF80DB0F0BDC046620600206A0200204B
:1052CC006B020020680200207F510100690200205F
:1052DC0010B50A4C201CFFF72FFA094A1378102B33
:1052EC0001D10F3B00E001331370607A3E210C308A
:1052FC0040B2044A06F04EFF10BDC04648010020E3
:10530C0069020020DD52000810B5094A094C1378D7
:10531C00201C59424B411370FFF70EFAFA21607AA8
:10532C0049000C3040B2044A06F034FF10BDC046B0
:10533C0068020020480100201553000810B50F4BDF
:10534C0004280FD3052806D906280BD100221A7081
:10535C00FFF7DAFF11E01A78002A0ED11A70FFF766
:10536C00B7FF0AE00022064C1A70201CFFF7E4F984
:10537C00607A0C3040B206F023FF10BD69020020A9
:10538C00480100208022034B01201A707F32DA7012
:10539C007047C04611070020F0B5002287B03C4989
:1053AC00061C06F09DFF3B4804AD0278802A58D0BD
:1053BC000121394B1B685B799943131C002906D0DA
:1053CC000B2A01D90C3BDBB2002B00D10C3303248C
:1053DC000457324F407801343BD01C1C32280DD975
:1053EC00172A51D0541CE4B2002907D00C2C02D936
:1053FC000B3AD4B202E0002C00D10C3400900721FF
:10540C003A1C281C0AF0E0F90322224BC0B29A562F
:10541C0008230093043B019303900021301C1433A8
:10542C00029507F025F80023072100933A1C231C52
:10543C00281C0AF0C9F9174BC0B2DA780823073ACE
:10544C000093043B039052B201930295301C00214F
:10545C0015E000900721281C3A1C0AF0B5F9C0B2DF
:10546C0004E0281C0E490AF044FA05200021082308
:10547C0003900A1C301C0093043B019302951433D7
:10548C0006F0F6FF07B0F0BD0024A142B5D1B5E798
:10549C00F654010811070020700600207B43010818
:1054AC008343010838B50B4C0B4DE378281C0133B2
:1054BC00E370FFF741F90323E356062B02DDFF23CC
:1054CC00E37006E0687A8E210C3040B2034A06F095
:1054DC0061FE38BD1107002054010020B1540008B2
:1054EC0038B5134B81781A788A4204D15D784478A8
:1054FC000022A54203D0197042785A70012201781B
:10550C00587899703B280CD13B290AD10022DA70CB
:10551C00084B5331587A084A0C3040B206F03AFE28
:10552C0001E0002A02D00348FFF706F938BDC04657
:10553C001107002054010020B154000808B5044B99
:10554C005B789B0702D4081CFFF7CAFF08BDC04656
:10555C0062060020FF22024B00201A717047C046E1
:10556C002007002008B5084B5A79002A0BD0082ACE
:10557C0001D8083A01E008239A1AD2B252B200219B
:10558C00024B06F0B1FE08BD200700206C01002084
:10559C0070B5224A224C5379161C062B21D9072BA5
:1055AC0002D10133537135E0082B18D11D4B1B6808
:1055BC00002B04D01C48111C9847051C09E093795A
:1055CC00002B03D11568913DFF3D02E009232C25EA
:1055DC005371B3790133B371002D1BD00DE00F2B38
:1055EC0003D8013353712C2507E00021FF23201C25
:1055FC0051711371FFF730F90EE0201CFFF79CF886
:10560C006B1C09D0607A291C0C3040B2074A06F09A
:10561C00C1FD01E00025F5E770BDC0462007002064
:10562C0060010020180700206C0100209D55000827
:10563C000D4B10B5197101215971002199710B494C
:10564C0018600A60002A02D00948191C9047094CBE
:10565C000121201CFFF700F9607A2C210C3040B29C
:10566C00054A06F097FD10BD200700201807002002
:10567C006C010020600100209D55000870B52D4B79
:10568C00051C1B780E1C002B52D02B4B2B4C18716D
:10569C002B49201C002206F023FE072D48D8281C7D
:1056AC000CF0F4F82A35461F46041409201C092175
:1056BC000022244B35E0201C05210222224B06F04F
:1056CC00AEFE201C0E210322204B2AE0201C0521BB
:1056DC0002221D4B06F0A3FE201C0E2103221C4BA4
:1056EC001FE0201C052101221A4B06F098FE201CFD
:1056FC000E210322184B14E0201C05210122154B0E
:10570C0006F08DFE201C0E210222144B09E0201CF9
:10571C00052101220F4B06F082FE201C0E210222D5
:10572C000F4B06F07CFE301C291C0022FFF780FF7B
:10573C0070BDC04662060020200700206C010020CE
:10574C00F6540108C243010889430108BD4301080E
:10575C0090430108B543010895430108984301089B
:10576C00CC430108F0B53E4B8FB01F78051C0822C6
:10577C00002F0FD15B78FF2B0CD1FB3B0193394BE6
:10578C00009202930323391C03933A1C153306F041
:10579C006FFE62E01E23062405AE6B443272181CA9
:1057AC003149221C74720AF085F8002F3BD12C4B26
:1057BC005C78013CE4B2002C02D1281C082148E0A2
:1057CC0064B2012C06D1281C04210222331C06F0E1
:1057DC008BFD3CE0022C0ED1281C391C221C331CE6
:1057EC0006F082FD281C0821221C331C06F07CFDCF
:1057FC00281C102115E0631C02211C4A04A809F086
:10580C00E3FF082302240093043B019304AB0293AF
:10581C00281C391C03943A1C102306F029FE281C62
:10582C000E21221C16E008230021114A0093043B90
:10583C000193029203930A1C281C143306F018FEE1
:10584C001E236B44181C0B49221C0AF033F8281C2D
:10585C000C210222331C06F047FD0FB0F0BDC046F0
:10586C001D070020A34301089D430108A74301081D
:10587C00AB430108E643010838B50024094B0A4D37
:10588C0018705970281C221C08499C7006F028FDC1
:10589C00281CFFF767FF06480821221CFFF7C8FEEB
:1058AC0038BDC0461D0700206C010020F6540108CD
:1058BC00B80B000010B5041C04F05CFE002804D1E9
:1058CC00201C06210222044B03E0201C062102228C
:1058DC00024B06F0A4FD10BDDC430108D2430108C5
:1058EC0013B503F08FFA032817D80C4B1B79082B30
:1058FC0013D901A804F044F800280ED0084C09492B
:10590C000022201C06F0ECFC201CFFF7D3FFFA2031
:10591C000921C0000022FFF78BFE13BD20070020D9
:10592C006C010020F654010870B5194C86B0227831
:10593C00051C0426092A06D9023E632A03D9643AB7
:10594C0053425341DEB2281C124B71B2022206F0B4
:10595C0066FD237804AC201CFF2B04D10E4909F002
:10596C00C8FF042004E007210C4A09F02DFFC0B247
:10597C000822311C0F230092073A0192039009313F
:10598C009B1B0294281C002206F072FD06B070BD11
:10599C001C07002089430108B04301088045010819
:1059AC0038B5174C2379032B29D9FF23002800D1B4
:1059BC000B1C144A06200021137006F009FC002869
:1059CC001DD02379042B06D16379072B03D9072328
:1059DC0063710023A3710C4D0C49281C002206F0A6
:1059EC007FFC281CFFF7A0FF2379042B02D1FFF7C3
:1059FC00CFFD04E0064804210022FFF719FE38BD54
:105A0C00200700201C0700206C010020F654010820
:105A1C00B80B0000002108B50A1C024B06F064FC10
:105A2C0008BDC0469C01002008B50448044900226A
:105A3C0006F056FC0348FEF77FFE08BD9C010020D3
:105A4C00F6540108900100201FB5082106AA12780F
:105A5C0000910439019100210293039218230A1C2E
:105A6C00034806F005FD0348FEF766FE05B000BDD1
:105A7C009C0100209001002038B5051C0C1C131C47
:105A8C00291C221C034806F02FFC0348FEF754FE89
:105A9C0038BDC0469C0100209001002008B5044888
:105AAC000121FEF7D9FE05200121FEF7C1FF08BD3B
:105ABC009001002008B504480021FEF7CDFE05201A
:105ACC000021FEF7B5FF08BD9001002070B5344BE6
:105ADC0088B01A78041C334D002A1CD00023182AD5
:105AEC0002D007339B1ADBB25AB20021231C04A844
:105AFC0006F01CFD04A8291C002206F0F1FB08236B
:105B0C000093043B0193284B00210293052304A826
:105B1C0003930A1C3EE0291C06F0E2FB234B1D7884
:105B2C00002D28D0062D38D1214B1A78FE2A01D110
:105B3C009A3A1A701B78FF2B06D1F73B1D4A00933B
:105B4C00043B0193029210E004AD281CFE2B03D100
:105B5C00194909F0CEFE03E00721184A09F034FE7A
:105B6C0008230093043B0193029500210393201C0E
:105B7C000A1C14330FE004AE1149301C09F0B9FEB5
:105B8C000823201C291C2A1C0093043B019301337D
:105B9C0002960393133306F06BFC08B070BDC0463D
:105BAC006D020020F6540108EC4301086206002047
:105BBC006C020020F2430108F7430108FC43010882
:105BCC000144010808B5024805F0BEF8012008BDE3
:105BDC00415C000838B5144A1378111C002B01D114
:105BEC00137020E0114D182B04D1182301240B70D5
:105BFC0064420CE0062BF8D00E2B05D10021281C9A
:105C0C001170FEF729FE0EE08E2401331370281C50
:105C1C00FEF792FD631C06D0687A211C0C3040B252
:105C2C00034A06F0B7FA38BD6D020020C00100200F
:105C3C00E15B000838B5144D062805D80BF026FE9C
:105C4C001D04040406181D00002417E00F4B01244A
:105C5C001A78182A12D01C70687A8E210C3040B237
:105C6C000B4A06F097FA281C211CFEF7F5FD05E0FF
:105C7C000722064B1A70FFF7ADFF0124281CE1B276
:105C8C00FEF7EAFD38BDC046C00100206D020020C1
:105C9C00E15B000808B5034B18700348FEF74CFD98
:105CAC0008BDC0466C020020C001002010B5041CC9
:105CBC006548211C09F085FC422C02D0442C0ED0E6
:105CCC0014E0624B5A78120710D41B78043B012B5A
:105CDC0002D804F003F809E005F056F806E05B4B37
:105CEC001B78002B00D1ADE005F086FAFEF7B8FE6C
:105CFC00002800D0A6E0201CFFF71AF9011E00D0E6
:105D0C00A0E0472C4CD01ED8222C00D17CE010D81F
:105D1C00072C00D296E0082C26D9092C00D091E053
:105D2C004B4B01201978FFF73BFE012006F09CFE3F
:105D3C0088E0402C3DD0412C35D0232C00D081E084
:105D4C0004F04EFD7EE0542C36D005D8522C77D082
:105D5C006FD8502C62D075E0562C46D03AD3572CC5
:105D6C0070D104F07DFF6DE0384B1B78002B69D0AF
:105D7C0003F04AFA002865D0354B1878072C04D16B
:105D8C00632806D80130C0B206E0002804D00138E0
:105D9C00C0B2642800D96420012104F077F851E0E6
:105DAC0005F010FA4EE0012006F05EFE05F072FAE6
:105DBC0048E005F011FF45E003F0FEFD302841D02E
:105DCC0002F09AFE002802D002F0E4FE3AE004F061
:105DDC0029FD37E01D4B5B785B0702D505F0F4F825
:105DEC0030E00120FFF7EEF82CE0184B5B785B07F6
:105DFC0003D50120FFF790F924E002F037FF154896
:105E0C000121FEF729FD1DE0104B5B785B0702D5E5
:105E1C00FEF7DEFE16E004F0A7FC13E0FFF77CF9BA
:105E2C0000280FD103F0EEF800280BD104F03AFD56
:105E3C0008E003F031F95824002800D138E701E0DC
:105E4C0003F0D0FD10BDC0464D4401086206002091
:105E5C00CD0100204801002008B5054B05491B7BEE
:105E6C00DB0700D5044905480722FEF747FC08BDAF
:105E7C00003E0008074401082A440108B95C0008E8
:105E8C000023074A1380074A1380074A1370074AF6
:105E9C001380074A1370074A1370074A1380704720
:105EAC007602002070020020750200206E02002095
:105EBC0078020020740200207202002070B519498B
:105ECC000B78DBB2002B04D00321174809F0C0FB80
:105EDC0027E0164E164C3278164D002A04D0228834
:105EEC0092B22A800B703370134B144E1A88B05434
:105EFC001888134A904201D1002202E01A8801321C
:105F0C0092B21A8018882A88904201D101220A7014
:105F1C001A8823889A4202D101220A4B1A7005F082
:105F2C007BFD70BD750200205F44010874020020E7
:105F3C006E0200207002002076020020540800201F
:105F4C00E703000078020020F0B585B0071C02A81A
:105F5C000E1C07F08DF8FA21039B8900181C019385
:105F6C000BF0A8FC0299021C0390234809F029FBB2
:105F7C000421224809F06CFB214D042228786B780F
:105F8C0000021843102109F049FB1E4C0121201C72
:105F9C0009F05EFB0222A878102109F03FFB201CBF
:105FAC00012109F055FB0522381C0A2109F036FBAA
:105FBC00201C012109F04CFB02226879102109F008
:105FCC002DFB201C012109F043FBA879EB79000281
:105FDC0018430422102109F021FB201C012109F097
:105FEC0037FB0522301C0A2109F018FB201C01216B
:105FFC0009F02EFB05B0F0BD6344010870440108A4
:10600C0079020020AE43010808B5FFF739FF0220E2
:10601C000249034A07F0E6F808BDC046C95E00080D
:10602C008D5E0008F7B56449644B0A78002A00D1EC
:10603C00B1E01A886248825C624801921A888242F6
:10604C0001D1002202E01A88013292B21A80002398
:10605C0001220B705C4B5D4D1A702B88002B02D00B
:10606C002B88934203D1019BAA2B00D090E02B8864
:10607C00834204D869462B88554A0979D1542B8818
:10608C0001339BB22B802B88042BCCD9504FFE783C
:10609C003B7936021E43732E55D02B88092BC2D95F
:1060AC003C7A7B7A24021C432A2E0DD0702E01D010
:1060BC00D02E05D1FA231B019C4200D972E031E0AD
:1060CC00402C00D96EE02DE0231C2A880A339A421A
:1060DC000FD10A2009F09AFAFA22381C3D49920095
:1060EC0005F01AF9FA22381C0021920009F0EBFB9A
:1060FC004EE02B880A2B0CD0019809F087FA6B46DE
:10610C00FA221B79381C01219200BB7205F004F9AC
:10611C0089E72B880A2B00D085E7301C211CFFF760
:10612C0013FF80E7221C2B8809329A4200DB7AE7A6
:10613C00FA222B889200934206D92988264889B2E4
:10614C0009F03FFA00E00024301C211CFFF7FCFE94
:10615C00702E0AD1022C0AD91021F87A022209F0E9
:10616C005DFA1B48E11E0C3007E0632C03D818487D
:10617C00211C0A3001E01121184809F069FA0A20A3
:10618C0009F044FAFA221248211C920005F0C4F8D6
:10619C0000232B8047E7124A10881A88904200D0BF
:1061AC0047E7F7BD301C211CFFF7CEFE211C321C2B
:1061BC000C4809F006FAEBE7780200206E0200208A
:1061CC0054080020E7030000740200207202002033
:1061DC0079020020FFFF0000754401087F4401088C
:1061EC0076020020914401089623F0B5151C0A3262
:1061FC0085B05B009A4200D9FEE7524B524C1B789B
:10620C00002B04D02521514809F022FA19E0AA22CA
:10621C00227062702A0AA070E3702171637122727D
:10622C006572A371E3712A1C09329A4209DBE25CA4
:10623C004749C8690006FBD592B201330A859BB267
:10624C00F1E702A806F014FFFA21039B8900181C41
:10625C0001930BF02FFB0299021C03903D4809F0AF
:10626C00B0F904213C4809F0F3F920786378000276
:10627C0018430422102109F0D1F9384F0121381CA0
:10628C0009F0E6F902221021A07809F0C7F90121E2
:10629C00381C09F0DDF9E678237936021E43052215
:1062AC000A21301C09F0BAF90121381C09F0D0F987
:1062BC0002221021607909F0B1F90121381C09F092
:1062CC00C7F9A079E379000218430422102109F0E0
:1062DC00A5F90121381C09F0BBF9207A637A000278
:1062EC000A211843052209F099F9381C012109F0FB
:1062FC00AFF9702E1AD1022D1BD9A37A18480D2B89
:10630C0000D01848032109F0A3F9E07A10210222E9
:10631C0009F084F96419E91E134809F099F9637AB4
:10632C000F480D2B00D00F48032104E00A21EC2E5E
:10633C0000D0291C0D4809F08BF90A2009F066F9E8
:10634C0005B0F0BDCC0F002028070020C144010887
:10635C000044004063440108E7440108AE430108CF
:10636C00BB440108BE44010834070020320700205A
:10637C00034BDA69C0231340C02BF9D17047C046D8
:10638C0000440040044B1A69120603D5034A5A60B4
:10639C00034A5A607047C0460020024023016745FB
:1063AC00AB89EFCD70B502250D4E0E4CFFF7EAFF11
:1063BC000D480AF053FB301C0AF0E0FA23690B4835
:1063CC00AB4323610AF04AFB301C0AF0D7FA802257
:1063DC002369AB43236123691343236170BDC0461A
:1063EC0050C300000020024000F0010800F8010832
:1063FC00F0B587B005AB009309240B250A236C4438
:10640C006B446D4403AA061C0F1C0195191C201C1F
:10641C0004AB02F0FDFC2278254B062A02D8254B52
:10642C009200D358301C391C234A09F0CDF96B4625
:10643C009B7AC4B2FF2B08D0C1B270181F4A791ACC
:10644C0009F0C2F9C0B2241803E018403A23013411
:10645C0033542B78FF2B0AD03019391B0093184A70
:10646C00059B09F0B1F9C5B26419A5B206E03A234F
:10647C00A51C33550134A4B2ADB233556B469B7A8F
:10648C00FF2B0BD0049B70190093791B0D4A039BB7
:10649C0009F09AF9C0B2281880B203E03A23681CBC
:1064AC0080B273550D233354013080B207B0F0BD68
:1064BC00094501083C480108B6460108D7450108C2
:1064CC00D44501080E450108F0B5002487B00192AF
:1064DC000E1C221C0090019B9C4200D385E033577C
:1064EC003A2B00D181E0651C5C2B00D07BE0B1180D
:1064FC000098A21A07F0A9F873572F1C622B22D010
:10650C000ADC2F2B19D002DC222B18D05CE03A2BA2
:10651C005DD05C2B0FD057E0722B56D004DC662B71
:10652C000FD06E2B05D04FE0742B0ED0752B0ED0E8
:10653C004AE0324D4CE0324D4AE0324D48E0324DAB
:10654C0046E0324D44E0324D42E0324D40E0002313
:10655C00A11C711803A8039307F00AFFFC23039AEC
:10656C001B021340D822671D1202934220D1A71D93
:10657C00F357294D5C2B2BD13319DB795BB2752B7F
:10658C0026D1211C00230B34271C0831711804A8B8
:10659C00049307F0EDFE039B9A06110C049A9B05DD
:1065AC0092051B0F920D01330A431B0413430393F3
:1065BC00039804A907F0F0FE039B04AD002B07D150
:1065CC000098291C012209E0FEE7144D00E0144D4F
:1065DC00281C09F0A1F9291C021C009807F035F8B9
:1065EC007A1C141C77E72C1C75E7B1180098A21ABA
:1065FC0007F02BF8201C07B0F0BDC0466144010821
:10660C0090450108CE4A01088D4501081445010842
:10661C0016450108184501080C45010801470108F9
:10662C001C4D0108F0B5061C0D1C8BB0039310AB70
:10663C0010CB171C1B78211C202206A8049306F0F3
:10664C00FDFFAA1B311C06A8FFF73EFF0021089B8B
:10665C0036180293079B0593059A029B99540023C5
:10666C00F3563A2B00D09AE0731C5048191C152293
:10667C000293ED1A09F00FF9002809D1321C2B1CDA
:10668C00201C1632153B2030942102F053FD14E0EF
:10669C00474B932D00D983E0211C9422203106A86E
:1066AC0006F0CCFF02992A1C06A8FFF70DFF00216B
:1066BC00089A079BD154A84271D100253D4AEBB2F0
:1066CC000593AB009E58301C09F026F90299021C68
:1066DC00301C09F0E0F8374E002802D1364B5D5DD6
:1066EC0004E00135052DE9D105950C352B1FDBB2E6
:1066FC00052B50D801229A40131C312213424AD048
:10670C00039B002B0DD0181C211C09F0F9F8002854
:10671C0007D1201C039994222031203009F0CAF8AB
:10672C003BE0264B1B78AB4201D0254B38E0059B58
:10673C009B00F558281C09F0EFF8039B002B0DD19A
:10674C00C6B2301C1F4920300C2209F0A4F80028D6
:10675C0004D12C363378303BDBB20493049BFF2BF3
:10676C0003D1194B33203B601CE09121049B490061
:10677C00164A174809F028F8462182B20220FFF782
:10678C0033FD201C049B94210093124A2B1C2030B7
:10679C0009F01AF801E000233B60302002E00E4BB8
:1067AC0032203B6040B20BB0F0BDC0461A45010828
:1067BC003045010828480108EC4401086406002013
:1067CC003D4501084A49010859450108664501083B
:1067DC003207002072450108945001085C23F0B583
:1067EC000025071C012687B0029204AA13701933E6
:1067FC005370453B9370D370029B0091013395719C
:10680C000393731E0193039B9E4241D0009B019AFC
:10681C00985C43B20D2B1AD00CDC092B1BD003DC7B
:10682C00214C082B22D018E00A2B3AD01F4C0C2BF1
:10683C001CD012E02F2B0CD003DC1D4C222B15D0BE
:10684C000BE03A2B11D01B4C5C2B0FD005E01A4CF3
:10685C000CE01A4C0AE01A4C08E0C0B21F2815D8FC
:10686C0005A907F079FD04AC00E0164C009B381C20
:10687C005919019B5A1B06F0E8FE201C09F04CF834
:10688C00211C021C381C06F0E0FE351C0136B8E752
:10689C00009B381C5919029B5A1B06F0D6FE07B0F8
:1068AC00F0BD094CE2E7C046864501088945010860
:1068BC008C4501088F450108BB4401082D45010892
:1068CC008345010892450108BE44010870B5061CB9
:1068DC0086B00D1C141C101C1D49102208F0DBFF87
:1068EC00002823D1311C2A1C02A806F0A7FE102276
:1068FC0002A81849FFF772FF049B261C0093039B08
:10690C0010360193019A009B944663441D1C9434E9
:10691C003378281C0221104A013608F055FF023545
:10692C00A642F5D103980930FF300EE02A1C311C29
:10693C0002A806F083FE9421201C08F036FE211CD0
:10694C00021C02A8FFF74AFF039806B070BDC046B0
:10695C0095450108A6450108B7450108F0B51C1C72
:10696C001B7891B000936378161C0193A378627A1C
:10697C000293E378051C03932379207A04936379BB
:10698C0012020593A37902430693E3790B910793C3
:10699C00A37A91211B0413431A1CE37A281C1B06AF
:1069AC0013430893164A331C4900271C08F00CFFAC
:1069BC000C37C6B22021381C08F0F7FD114AA91972
:1069CC00521B921B2D320A90FF320CA806F036FE99
:1069DC000CA8391C0A9AFFF701FF3A23221C0D98C8
:1069EC002C323618AB550B9B771CD91BE819FFF7CB
:1069FC006DFF0D2338182B54013011B0F0BDC0467B
:106A0C00BC450108280700207FB5144C051C637891
:106A1C001348A27800290AD0561EB24115260291BD
:106A2C009121B21A0192009549000E4A0AE0511EBA
:106A3C008A4115218A1A00950192E2780E31029250
:106A4C00094AFF3108F0C0FEC0B282B270210220A8
:106A5C00FFF7CAFB002323707FBDC046410C00200A
:106A6C0032070020DB450108E8450108F0B5604C11
:106A7C00161C227885B00F1C002A02D0342000216D
:106A8C00B2E0072E02D932205A49ADE00122227021
:106A9C000A9A60709D18A170181C02A91022E67049
:106AAC00029508F052FD002320710298C3563A2B30
:106ABC0000D097E0013002A91022029508F045FDA4
:106ACC00002360710298C3563A2B00D08AE0013043
:106ADC0002A91022029508F038FD0023A07102983B
:106AEC00C3563A2B00D07DE0013002A9102202954A
:106AFC0008F02BFD0023E0710298C3563A2B71D19C
:106B0C00013002A91022029508F01FFD002320720B
:106B1C000298C3563A2B65D1013002A91022029576
:106B2C0008F013FD002360720298C3563A2B59D11A
:106B3C00013002A91022029508F007FD0023A07273
:106B4C000298C3563A2B4DD1013002A9102202955E
:106B5C0008F0FBFC0023E0720298C3563A2B41D19B
:106B6C00013002A91022029508F0EFFC030A6373AE
:106B7C00030C2073A373000E029BE0731B785BB2B3
:106B8C003A2B2FD123799A0705D5E279002A02D125
:106B9C003220194928E01B0707D5002006F02AFAF5
:106BAC00002802D0322015491EE0029B5C1C0023F9
:106BBC009F4204D1301C01F091FF031C0C33104A8E
:106BCC00201C0092291C019603AAFFF72BFD0399A8
:106BDC00041E302C04D10B49301C01F099FF00210C
:106BEC00201C01E032200849FFF70EFF05B0F0BD74
:106BFC00410C0020364E0108F5450108FB45010803
:106C0C00510C0020450C002094500108F0B5DFB069
:106C1C000AAF012901D801F047FA0122C34B061C27
:106C2C001A704A1E93B20022BB60C3181A70C27845
:106C3C00FB60302A00D002E20379302B2FD183780D
:106C4C00632B01D001F02AFAB94A1378591C117040
:106C5C00B84AD268002A01D0526801E0012252429F
:106C6C003021009100210191B34904920291B34962
:106C7C00B34A039191210592B24A49000692B24A55
:106C8C00B2480792B24A12680892B24A0992B24AC2
:106C9C0008F09AFD7021C2B2022001F0FDF9312BEF
:106CAC002ED1AE4B1B685C7901231C408378672B7B
:106CBC0022D0702B01D001F0F1F9FB6810227B621D
:106CCC001423BA18D1180530102208F03EFCC0B2BB
:106CDC003875844203D0A2480121FDF7BDFD142371
:106CEC000122F8180521FDF775FA3022737800920D
:106CFC002F3A01923A7D5FE043780092062269E3D5
:106D0C00332B0AD180783038C0B20E2801D901F06B
:106D1C00C5F904F0CDF901F0C1F9342B03D104F01D
:106D2C0051FA01F0BBF9352B20D1BB680A2B17D9CE
:106D3C0010221423BA18D418F818211C802206F03B
:106D4C007DFC1423BA68711DF818053AFFF7BCFBDB
:106D5C000023211C2354002003F060FF01F09EF956
:106D6C000020011C03F07CFF01F098F9362B25D193
:106D7C007A4B1B6899788378672B17D0702B01D0CE
:106D8C0001F08CF9FB6810227B621423BA18D1181D
:106D9C000530102208F0D9FB012318404340041C95
:106DAC00181CFDF78BFE73783022A6E7437800920F
:106DBC0006220192053A0A40029210E2372B3DD18D
:106DCC008378672B23D0702B0BD0612B01D001F073
:106DDC0065F9447805F060FD30230093293B01935D
:106DEC0024E0FB6810227B621423BA18D1180530FA
:106DFC00102208F0AAFB43004008C018C0B2FDF7EF
:106E0C0085FE303073780722009001F0F1F8FDF721
:106E1C006FFE302374780093293B01930CF0C6FF6E
:106E2C000022504B0BF0FEFC0AF08CFF91210290DB
:106E3C00490046484C4A231C00F026FC382B4DD107
:106E4C008378441D702B3FD1201C48490F2208F039
:106E5C0022FD002801D1523034E0201C44490A2282
:106E6C0008F019FD002801D150302BE0201C4149BD
:106E7C00062208F010FD002801D1543022E0201C1D
:106E8C003D49022208F007FD002801D1073019E026
:106E9C00201C3A49022208F0FEFC002801D10830DF
:106EAC0010E0201C3649042208F0F5FC002801D122
:106EBC00223007E0201C3349052208F0ECFC0028A6
:106ECC0002D15830FEF7F2FEB378652B01D001F0F9
:106EDC00E5F8201C03F06AFE01F0E0F8392B01D034
:106EEC0001F0DCF88378702B03D1FEF7D7FD01F0AD
:106EFC00D5F8642B03D1FEF7DDFD01F0CFF8632B41
:106F0C0003D1FEF791FD01F0C9F8742B3CD1441D5F
:106F1C00201C08F001FDC0B200900020231C011CB5
:106F2C00021CFEF791FD01F0B9F8C046400C0020A0
:106F3C0061060020C00000207A10002043460108A2
:106F4C004D100020F1440108710D00203207002083
:106F5C00FC3D0008DB1000202146010870060020D3
:106F6C005401002000000440E84501085646010881
:106F7C006646010871460108784601087B460108FF
:106F8C001C4B01087E460108622B01D001F086F8EB
:106F9C00441D201C3A2108F09EFC14231022F918E1
:106FAC007861201C08F0D1FA7B693A215C1C051C25
:106FBC00201C08F090FC14237861F918201C102276
:106FCC0008F0C3FA7B69061C581CFB6810227B6115
:106FDC001423F91808F0B9FA2C23FB1818707B69E4
:106FEC001022581CFB687B611423F91808F0ADFAC9
:106FFC002D23FB1818707B691022581C1E23BA18FD
:10700C00D418FA68831C7B61934209D9102214238B
:10701C00BA1868B271B2D218FEF72EFD01F03EF824
:10702C0014231022F91808F090FA10223623BA18FB
:10703C002070D318013478699C42E2D1E6E7312AFA
:10704C0071D10379302B3ED18378702B05D0732B03
:10705C002FD0302B01D001F021F8741D3A21201CC7
:10706C0008F039FC10221423BA18D11878621022B7
:10707C00201C08F06AFA7B6A102278610021581CE7
:10708C0008F063FA011C786905F0A2FF10221423A2
:10709C00BA18D118F81804F00BFF10221423BA18E0
:1070AC00D018FEF71DFA302273780092263A00F0C1
:1070BC009FFFD3490322D34808F0FCFB0220E521B3
:1070CC00032200F0E9FF312B16D18378302B03D04B
:1070DC00702B01D000F0E2FFBA68741D043A201C3A
:1070EC002821FDF777F8201C05F058FF3022737823
:1070FC000092253A00F07CFF392B01D000F0CEFF36
:10710C008378702B04D10221BF4A53788B4307E05C
:10711C00642B01D000F0C2FF0221BB4A53780B4311
:10712C00537000F0BBFF322A00D0D3E30579302D29
:10713C0061D18378612B27D14D3BF81801F0BAFC53
:10714C007378051E9C460DD03323912100931F3B71
:10715C000193AC484900AD4A634608F035FB7025F5
:10716C00C4B208E0B9683A7D05390091731D6046D8
:10717C000121FFF77BFC387DFDF76EFF002D01D060
:10718C0000F087FF00F08AFF642B1FD1FB681022F0
:10719C007B621423BA18D1180530102208F0D5F9E7
:1071AC00C0B2387501F002FD14229121737800955C
:1071BC0001923A7D490002929248954A08F004FBEC
:1071CC00C4B2387DFDF748FF00F062FF672B08D191
:1071DC0001F05EFC142273780095019202908948AC
:1071EC0045E06D2B01D000F059FF14224378019239
:1071FC0000950C3AE0E5312D4FD1FB6810227B62F3
:10720C001423BA18D1180530102208F09EF9B17861
:10721C00C2B23A757B6A67292CD1101C01F05EFC56
:10722C00784C051C737800281AD002787F2A17D85E
:10723C0030229126009276001B3A0192311C754A3D
:10724C00201C08F0C1FAC3B2C1B2FB6060182B1C41
:10725C00711A3A7DFFF782FBFB68181800F0DEFC10
:10726C003122201C00921C3A01923A7D029291210B
:10727C00490008E2702901D000F010FFF9680133D1
:10728C00C91A707800910021FFF7F0FBFDF730FE72
:10729C00387DFDF7E1FE00F001FF322D3AD1837805
:1072AC00672B03D0702B19D000F0F8FE30229125FB
:1072BC0043786D0000921A3A0192291C554A5148A4
:1072CC0008F082FAC1B2C4B2081C534B0A30C01881
:1072DC00691AFFF78DF8201800F0A0FC441D201C43
:1072EC004E49042208F0D7FA002802D101F052FCD2
:1072FC000AE0201C4A49062208F0CDFA031C0120A2
:10730C00002B01D101F048FE30307378162200902A
:10731C0000F06EFE332D3DD101F06CFCB378051CF2
:10732C00672B30D0702B03D0642B01D000F0B6FE4D
:10733C00703B59425941CBB2BB60FB6810227B6257
:10734C001423BA18D118701D102208F0FEF801236E
:10735C00041C184206D0B86801F054FC31480121D5
:10736C00FDF77AFA2A1CBB68A243D2B2002B01D0DB
:10737C002C43E2B2302173780091193901910292B9
:10738C0020480C317EE1302273780092193A019238
:10739C00029024E7342D47D18378672B1DD0702BB6
:1073AC0006D0642B01D000F079FE022464420AE07E
:1073BC00FB6810227B621423BA18D11805301022F6
:1073CC0008F0C3F8041C201C01F0D2FD30227378A5
:1073DC000092183A0192029401E701F059FD021C47
:1073EC0073780848911C03D133320092193A7FE12B
:1073FC00302100911839019102920B3142E1C046C3
:10740C008446010832070020620600204B46010822
:10741C00E845010888460108280700209246010823
:10742C009746010848010020352D27D18578672D16
:10743C001DD0702D01D000F031FEFB6810227B6254
:10744C001423BA18D1180530102208F07EF8041C49
:10745C0001F066FE3022912173780092173A019266
:10746C0002944900DA4ADB4808F0AEF930E201F048
:10747C0089FD302273780092173AAEE6362D00D093
:10748C00DCE08378672B00D188E0702B06D0642B6E
:10749C0001D000F003FE02F08FFA79E0CE4DCF4A16
:1074AC002B68741D991810221423BA18D018BC22FA
:1074BC0008F000FAFB683B619C4253D21023201C5D
:1074CC00F9181A1C08F041F83B699C4200D0B884AA
:1074DC005C1CFB683B619C4244D21023201CF918B5
:1074EC001A1C08F032F83B699C4202D02622BA18CA
:1074FC0010705C1CFB683B619C4233D21023201C37
:10750C00F9181A1C08F021F83B699C4202D0282279
:10751C00BA1810705C1CFB683B619C4222D2102391
:10752C00201CF9181A1C08F010F83B699C4202D078
:10753C002B22BA181070581CFB683B61984211D270
:10754C002B68A74A10219B181C2279188A180092C4
:10755C00082201920C32F968BA18FFF763F87969BE
:10756C00FFF752FA10221423BA18D01802F0D6F9E9
:10757C0030280DD110221423BA18D0189749BC22E8
:10758C00FCF728FE10221423BA18D01802F04CF97C
:10759C00303073781A22009000F02AFD8E4B1022A6
:1075AC0019688E4BBA18C9181423D018BC2208F0CD
:1075BC0081F910221423BA18D01802F0AFF9142351
:1075CC00F81802F0DDF9002801D000237B6130228D
:1075DC0073780092163A01927A6991240292BA8CCD
:1075EC00640003922622BA18117803220A400492EE
:1075FC002822BA181278102105922B22BA18127868
:10760C00791806921C228A180792211C754A714817
:10761C0008F0DAF8C1B2C6B21022081C3C23724D35
:10762C000A30BA184019D218611AFFF74FF90D2316
:10763C00301880B22D18AB720130EFE2372D3BD1F0
:10764C008578672D0DD0702D22D0642D01D000F0DF
:10765C0025FD01F067FF302273780092153A00F097
:10766C00C7FC01F053FF7378021E5A4803D1313224
:10767C000092163A3CE030210091153901911278B4
:10768C0008310292FF31524A08F09EF800F0B7FC24
:10769C00FB6810227B621423BA18D1180530102213
:1076AC0007F053FF14233875F81801F029FF302226
:1076BC0073780092153A04E1382D75D18578672DD1
:1076CC000DD0702D2AD0642D01D000F0E7FC01F014
:1076DC00C3FF302273780092143A00F089FC01F059
:1076EC0055FF7378021E3B4805D131320092153A92
:1076FC00019200F07FFC3021009114390191117836
:10770C00029151780391917804919121D27849009A
:10771C000592364A08F058F800F071FC441D201C04
:10772C003A2108F0D8F814231022F9187861201C9B
:10773C0007F00BFF2423FB1818707B693A215C1CA3
:10774C00201C08F0C8F814231022F9187861201CAA
:10775C0007F0FBFE2523FB1818707B693A215C1C93
:10776C00201C08F0B8F814237861F9181022201C9A
:10777C0007F0EBFE2623FB1818707B691022581CAF
:10778C00FB687B611423F91807F0DFFE2723102216
:10779C00FB1818701423BA18D01801F055FF3022BA
:1077AC0073780092143A8CE0392D01D000F076FCFD
:1077BC008578672D27D01BD8642D01D000F06EFC86
:1077CC0002F0AEF9302273780092133A00F010FCFC
:1077DC00E84501083207002070060020CA060000A8
:1077EC00D20600009E46010828070020BA46010870
:1077FC00702D30D0732D01D000F050FC0120FDF71E
:10780C008BFC00F04BFC02F07DF9D64D747800280F
:10781C0009D1312391210093143B0193281C490079
:10782C00D14A231CE9E3302346880093133B019390
:10783C0003783C210293301C0AF03CF8C0B2039050
:10784C003C21301C0AF0ACF904919121281C490010
:10785C00C64A231C16E2441D201C3A2108F03BF8B2
:10786C0014231022F9187861201C07F06EFE2423D3
:10787C00FB1818707B693A215C1C201C08F02BF853
:10788C0014237861F918201C102207F05EFE7B6926
:10789C00041C581CFB6810227B611423F91807F098
:1078AC0054FE3C231022E4B25C43BA18283BC0B20D
:1078BC000419D018FC8402F01DF930227378009260
:1078CC00133A91210192A7484900A74A07F07CFF7F
:1078DC00C4B2DEE3332A00D1E0E3342A00D0DBE18A
:1078EC000379302B00D0CEE080786138152800D990
:1078FC00D4E309F0D5FFAB006D002800D303A5003D
:10790C00D303BB00D303D303D303D303D30351005B
:10791C00D303D3031600D303D303D3038900D303B8
:10792C005F00FB6810227B621423BA18D118701DFB
:10793C00102207F00AFE041C01F066FCE0B20121E3
:10794C0002F0A4FA92E0FB6810227B621423BA18AE
:10795C00D118701D102207F0F8FD7B6A051C581C0D
:10796C00FB6810227B621423BA18D118102207F07E
:10797C00ECFD7B6A041C581CFB6810227B621423F0
:10798C00BA18D118102207F0E0FD021CE1B2E8B2DF
:10799C00D2B201F023FC69E0FB6810227B62142355
:1079AC00BA18D118701D102207F0CFFDC0B205F027
:1079BC00D9F85BE0FB6810227B621423BA18D1184B
:1079CC00701D102207F0C1FD80B205F0D5F84DE016
:1079DC00FB6810227B621423BA18D118701D102278
:1079EC0007F0B3FD7B6A041C581CFB6810227B62F9
:1079FC001423BA18D118102207F0A7FD011CE0B20D
:107A0C00C9B205F0C5F831E0FB6810227B62142383
:107A1C00BA18D118701D102207F097FD7B6A041C50
:107A2C00581CFB6810227B621423BA18D118102240
:107A3C0007F08BFD011CE0B2C9B205F0BDF815E0F2
:107A4C000639701D89B205F079FA0FE0FB68102237
:107A5C007B621423BA18D118701D102207F075FD23
:107A6C00C1B2002005F01CF805F030F8302291214D
:107A7C0073780092083A01923D4A3A4812784900CC
:107A8C0002923C4A00E6312B00D079E083786E2BD1
:107A9C0065D008D8642B00D000E302F039FE302208
:107AAC007378009257E0702B08D0732B00D0F5E25E
:107ABC0040793038C0B202F089FAEFE2441D201C44
:107ACC002D49042207F0E7FE051E24D110221423B1
:107ADC00BA18D1189622F818520005F0AFFD1423ED
:107AEC00311CBC68F818083C0931221CFEF7ECFC70
:107AFC00031C3220A3422CD1FB690121FB60BB6922
:107B0C00BB60BA68FB689D54F8692A1C02F022FC21
:107B1C003030C0B21DE0201C1849062207F0BBFE15
:107B2C00041E01D0322014E0FB6810227B62301C52
:107B3C001423BA18D1180B30102207F006FDC0B26E
:107B4C0000F0CCFF0028EDD02C300121221C02F0DB
:107B5C0001FC737800902922024801922DE002F07A
:107B6C0003FE9BE2320700204B460108D046010879
:107B7C00CD010020E3460108EE460108F34601085A
:107B8C00322B1ED18378672B00D087E2122205306E
:107B9C00A04907F080FE7378021E9F4809D19121FD
:107BAC0030320092063A01929C4A490002929C4A59
:107BBC006AE532220092083A01929121994A4900D1
:107BCC001BE2352B00D069E28378672B02D0732B34
:107BDC0026D063E207220530934907F05CFE7378E8
:107BEC00021E8D4803D0914A1278042A0BD1904A78
:107BFC0090495370012313700A2207F05BFE022098
:107C0C0046210A2248E2322291210092053A019241
:107C1C00894A49000292894A07F0D6FD84B237E2BC
:107C2C00451D02F06DFD7C4C00282ED0281C84498B
:107C3C00062207F030FE824BFB60002803D17B4B01
:107C4C001B78092B0AD0281C7E49062207F023FE3C
:107C5C0000281AD1754B1B78082B16D102F050FD59
:107C6C00724A73781278FE68092A00D0754E302259
:107C7C00912103900490201C0092033A0192724AC5
:107C8C000296490007F0A0FDB9E132227378009208
:107C9C00053A0192201CADE1352A00D071E103793F
:107CAC00302B00D0FAE18378672B0CD0732B00D1EA
:107CBC00D6E0642B00D0F1E101F056FB3022737852
:107CCC000092023294E11023F8180433C118FA1808
:107CDC0001F0F4FA021C30327378912100923222B6
:107CEC00041C01924C484900584A07F06DFDC5B27E
:107CFC00002C00D087E00023FB603B7DFA689A42A1
:107D0C007FDA3B7C7A6A1B01D6180023F25E531C87
:107D1C0065D04F4B00215B5E9B1A062B5FDC7368B2
:107D2C004C4ADB03DB0B93420AD0281C91214A4AB4
:107D3C000A3010184900494A07F046FD2D18ADB21B
:107D4C00454B6C1CA4B25D192C23201C9121AB72E9
:107D5C00414B424D0A3018182A1CB378490007F0E1
:107D6C0033FD3D4A2418A3B25C1CD3182C229A7202
:107D7C00B368384ADB03A4B2DB0BBD60934207D077
:107D8C00201C9121344A0A30101849002A1C0CE09E
:107D9C007368304ADB03DB0B93420AD0201C912121
:107DAC002D4A0A301018BA68490007F00DFD241846
:107DBC00A4B22C23284A651C1419A372F368254914
:107DCC00DB03ADB2DB0B8B4209D0281C91210A30AE
:107DDC0080184900BA6807F0F7FC2D18ADB23A23A9
:107DEC001D486A1C4519AB723B7C92B2002B01D129
:107DFC003B7D00E0013B3B74FB68151C0133FB60D1
:107E0C007BE7013DADB20D23681C84B212484519C5
:107E1C00AB723DE1034701083207002021470108FE
:107E2C0016470108FA46010881470108640600203C
:107E3C003D0C00208947010894470108DB450108E7
:107E4C00134601081A460108A34701088846010891
:107E5C002C0D0020FFFF0100280700201145010810
:107E6C006B4600259EB03B600AAB181CFF217022AC
:107E7C00BB6007F028FDBB68741D7B60FB6810229B
:107E8C007B621423BA18D118201C102207F05DFB5A
:107E9C000023796ACB562C2B50D1BB682C011C19B2
:107EAC00C303DA0B6368481C5B0C5B04134363600D
:107EBC0000237A681380FB6810227B621423BA18A3
:107ECC00D118102207F041FB7B6898700023786A68
:107EDC00C3562C2B00D0E5E0FB6810227B621423E8
:107EEC00BA18D1180130102207F02FFB6368DB039E
:107EFC00DB0B984206D0A368C0035B0CC00B5B0481
:107F0C001843A06000237C6AE3562C2B00D0C9E0F8
:107F1C00FB6810227B621423BA180134D118201C80
:107F2C00102207F012FB0121BA682B01D3189A7B9F
:107F3C009881000C08408A4310439873062D06D094
:107F4C0000237C6AE3563A2B00D0ABE001347B680B
:107F5C00013510337B60072D90D1281CB96801F0D6
:107F6C00C9F93030C0B232229121737849000090A7
:107F7C0001924F484F4A07F027FC3B68C4B29D461C
:107F8C0086E0392A76D10379322B3AD0352B00D0C2
:107F9C0084E08378702B00D080E0802341794648C0
:107FAC00DB0502681C1C920092081A4380230260B5
:107FBC001B02021C880757D593619020C0050368EB
:107FCC009B009B082343036080231B024C074DD569
:107FDC008361302413683848A343203C2343136047
:107FEC000423CA0744D583613022737800922F3260
:107FFC002F48019291212F4A490007F0E5FBC4B2AA
:10800C0046E08378702B49D1451D281C3A2107F096
:10801C0062FC041EAC4204D0421B291C274802F00F
:10802C00DDFD0134201C3A2107F055FC051C021B18
:10803C00211C23486C1C02F0D1FD201C3A2107F0B6
:10804C004AFC051C021B211C1E4802F0C7FDFB68E4
:10805C00691C5A1A1C4802F0C1FDFA20C00004F039
:10806C008DF803F017F919E09362A6E78362B0E785
:10807C008362B9E75A2A11D103797A2B0ED183780E
:10808C00702B0BD10120503A011C02F03FFE05E091
:10809C0070250220291C221CFEF7A6F800220B4B8F
:1080AC001A7001E032205EE7BD4655B0F0BDC04607
:1080BC00320700204B46010800040048B64701086F
:1080CC00344E0108BE470108C7470108400C002088
:1080DC00F0B51C1C374B8BB01D78022D68D1171CCA
:1080EC002D2205942135344CFF355B780E1C009005
:1080FC000192201C291C002E3ED0304A07F064FB54
:10810C0083B2E118EA1A06A8049305F097FA311C19
:10811C0006A83A1CFEF762FB079B06A80393039A7A
:10812C00049B944663449BB25A1C96B23A22A11902
:10813C00E254AA1B05F082FA129A642A00D964222E
:10814C0006A81199FEF74AFB079B1B4CF21892B23A
:10815C000393531C9DB23A23A35491225200291924
:10816C00521B06A805F06AFA06A80599109AFEF7A4
:10817C0035FB079BEB180FE0114A07F025FB86B285
:10818C00A119AA1B06A805F059FA06A81199129A6A
:10819C00FEF724FB079BF3180D219BB25A1CE154EC
:1081AC0092B202207021FEF71FF80022014B1A70C8
:1081BC000BB0F0BD3D0C00203207002088460108B2
:1081CC004B4601081FB5134B1A78012A20D1022403
:1081DC001C70114B1B78042B10D102F095FA041C67
:1081EC0007F09AFB0D4B0090019300233020029373
:1081FC000B490722231CFFF76BFF09E009490E22EC
:10820C00094807F057FB201CD0210E22FDF7ECFF8C
:10821C001FBDC0463D0C0020640600201745010818
:10822C0081470108D247010832070020F0B56523C9
:10823C00912485B00F4D64000093503B071C0E1C1D
:10824C000193211C281C0C4A163B07F0BDFAC3B243
:10825C00C1B2039348193A1C611A331CFEF77EFB1A
:10826C00039B70211A1892B20220FDF7BDFF05B0D6
:10827C00F0BDC0463207002088460108F8B500243E
:10828C000D4D2B78181C01262041E7B2304003D14C
:10829C00A419082CF6D10DE0381C00F01FFC011CB1
:1082AC00381CFFF7C3FF331CA3401C1C301C2B785D
:1082BC00A3432B70F8BDC0463F0C00200123834024
:1082CC00181C10B5074A084C137818432378107003
:1082DC00002B05D1FFF7D2FFC0B2012800D12070CE
:1082EC0010BDC0463F0C0020400C0020F0B501250D
:1082FC002B4C85B023782B421DD0652391270093FE
:10830C007F004F3B274A0193391C173B264807F047
:10831C005BFAC1B2C6B2081C244B0A30C018791AD9
:10832C00FEF766F8321892B202207021FDF75CFF5E
:10833C002378AB432FE00226181C304016D065235F
:10834C0000933D3B01931A4B91211B7849000293FA
:10835C000123184A5B42144807F036FA7021C2B266
:10836C00301CFDF741FF2378B34314E004273B4254
:10837C0013D000F03FFC9121012300905B42490097
:10838C000D4A094807F020FA7021C2B2301CFDF7E3
:10839C002BFF2378BB43281C237005B0F0BDC046CF
:1083AC003C0C0020884601083207002028070020DA
:1083BC00CD010020E8450108E147010838B501244A
:1083CC00231C8340181C074A074D137818432B783D
:1083DC001070002B05D1FFF789FFC0B2002800D028
:1083EC002C7038BD3C0C0020400C00200022014BAE
:1083FC001A707047400C0020F0B587B00193244BE5
:10840C000D1C19680023061C141C994205D0006829
:10841C000122884200DC1A1C131C301C02A9DFB29A
:10842C0003F046FD02AB9B7802AAED1A3C235D4398
:10843C002D1954782C1B5C431378019AD31AE41829
:10844C000C9B002B03D0E3430C9ADB0F13703368A7
:10845C00002C01DAE4180F4BE4180D4B18680023BC
:10846C00984204D00122844200DC1A1C131CDBB29B
:10847C009F420AD0084B221A1968084B1B68CD1A68
:10848C00AA4203DB581A201800E0201C07B0F0BDEC
:10849C00F010002080510100F4100020F810002092
:1084AC0070B53C26051C4379447880791C1B7443B9
:1084BC002418A8782B78241A301C86B06043DB066D
:1084CC001FD5B423E879DB00002905D0411C5943A2
:1084DC00331C09194B4302E043431B19734302AE8F
:1084EC00D21801A8311C019203F0E2FC3C206A79FD
:1084FC00B3789B1A434372789B18AA799B1AE41A97
:10850C00604306B070BDF7B50025C779141CC6785A
:10851C00AF4206D0331C1341DB0702D50D1C691E7C
:10852C008D410721381C09F055FA07210190381CA0
:10853C0009F036FB00290CD0062C02D00134E4B231
:10854C0000E00024321C012322411340ED180139B4
:10855C00F0E70B1C301C0122184101330240891832
:10856C00072BF7D1019B59436818FEBDF0B50B687A
:10857C0093B00B930378041C0D1C1B071AD4002317
:10858C0061780093A2780BA8FFF736FF0EAD0B9025
:10859C00291C0BA803F08CFC23780B989B0700D4A8
:1085AC00ABE0E378AA791341DB0700D5A5E00130F5
:1085BC000B90E4E70B234178827808A81B18201C49
:1085CC00009308300023FFF717FF2B680C908342B1
:1085DC0003DA6178A278002321E00EAE0CA8311CDE
:1085EC0003F066FC08ABDF7AB279391C201CFFF76C
:1085FC008AFF391C06900C9A201CFFF751FF404F44
:10860C0007903A1CE0790C994243079B8A1809970A
:10861C002F68D2180023974206DD6179A279009366
:10862C00281CFFF7E9FE68E0B7791E1C002808D06B
:10863C00E3783B41DB0704D508ABDB7A1E1C731EC9
:10864C009E41002223780392DB0607D43C206378FA
:10865C00A27843439B1858430D9103900023049335
:10866C00049AE3799A4247DA2378DB060CD5069B09
:10867C000798591E704309F0ADF9099A431C5343EE
:10868C000C9A9B18181825E0039B0593069B012B4D
:10869C000AD00798591E704309F09CF9039B3C21A2
:1086AC00181809F097F90590E1220D9B52019B18BF
:1086BC003C2105980D9309F08DF93C21C3B2059826
:1086CC00089309F06DFA0023CAB200930DA808991B
:1086DC00FFF792FE0D90062F01D0013700E0002726
:1086EC00E3783B41DB0704D50D982B68984204DAFC
:1086FC000136049B0133B2E7002013B0F0BDC04635
:10870C008051010008B5024B1873FCF717FE08BD29
:10871C00080D0020F0B5C025B9B008AC2A1C061C09
:10872C00201C0F1C07F0C6F87F23227875431340DA
:10873C002370294B01951B685D19C83500932B7864
:10874C005AB2002A3CDB08213A780A4238D00B4254
:10875C0036D053400122134232D002A804F04AFC16
:10876C00002837D101223B78134206D01B480299CE
:10877C0006F027FF029BA36022E00198009BC83003
:10878C00181802A9FFF7F2FE04AF391C039003A8D6
:10879C0003F08EFBBB78AA6800936B461B781049DC
:1087AC006371029B7F78981AA77109F013F9EB7922
:1087BC0000991B1ADBB20B483A1CE37106F001FF5F
:1087CC00C022111C7143201CC831FBF703FD301C67
:1087DC00FFF774FD39B0F0BD700600205848010851
:1087EC00805101006D480108C02210B50E4BB0B08D
:1087FC0019680E4B1C78131C6343C918C8310B78CD
:10880C007F2B0FD8CB78002B0CD1684607F052F891
:10881C006B4601221B78201C93436A4669461370F1
:10882C00FFF778FF30B010BD70060020080D002057
:10883C0008B5044806F0C5FE03480121034A01F0BF
:10884C0089FD08BD95480108A8480108B18E0008AB
:10885C00C02370B5154D061C2C7815495C43154B7F
:10886C0007221B681C19F434201C07F014F800288C
:10887C0001D0114900E011490720114A03F08AFC8C
:10888C00E97B0022081C00F0A9FC002E09D0201C5A
:10889C0000210C4A01F05EFD002804D0FFF7C8FF50
:1088AC0001E001F0E3FFFCF7DBF870BD080D0020E0
:1088BC00B348010870060020C8AF000060EA000051
:1088CC003D880008B18E000810B512490B7B062BB1
:1088DC0000D0FEE7C022104B041C18680B785343E1
:1088EC00C318C8331B7904209B08CB73FFF70AFF0E
:1088FC000020FFF763FD0120FFF760FD00F070FD25
:10890C0003200121FCF794F8002C02D00020FFF783
:10891C009FFF10BD080D00207006002008B5012037
:10892C00FFF7D2FF08BD0000FF23F0B50025244C53
:10893C008DB0013007902374C0207E21214E6843F6
:10894C003268EFB21318C8331B788B43012B0CD150
:10895C00C830101807A9FFF709FE237CFF2B02D0A3
:10896C006369834201DD277460610135082DE3D111
:10897C00237CFF2B1ED008AD291C134803F098FA5A
:10898C006B79124A217C9B182A7901320092EA7881
:10899C000192AA7802926A7803922A780492C022F1
:1089AC004A4330688218F43205926269084806F02E
:1089BC0008FE02E0074806F004FE0DB0F0BDC0460C
:1089CC00080D0020700600201C0D00206C07000014
:1089DC00BB480108EB48010807B501A804F00AFBE5
:1089EC00002802D10198FFF79FFF07BD38B5194B3E
:1089FC00051C1A7B1C1C032A06D10020011CFCF749
:108A0C00B5F9002D12D10FE000F0FEFB01F080FE55
:108A1C00FCF726F803200021FCF70AF8002D05D1FD
:108A2C0003200D49FCF72AFEFFF7DEFEFF2323701F
:108A3C00FFF7D2FF00F008FD0120FFF763FE0020D6
:108A4C00FFF7BCFC072003F0BBFB044802F0AEF8B8
:108A5C00002038BD080D0020B80B0000F5480108B7
:108A6C0010B5094B094C1B689A780223134000D0AF
:108A7C0001232373FF2323702374FFF7ADFF207BA7
:108A8C00FCF75CFC10BDC04670060020080D0020F1
:108A9C00074B1A680023181CC83211787F2902D89A
:108AAC000121994008430133C032082BF5D170479E
:108ABC0070060020084B1A680023C83211787F29F1
:108ACC0002D90370002005E00133DBB2C032082B61
:108ADC00F4D1FF2040B27047700600200023072815
:108AEC0005D8C0335843034BC8301B681B18181CDF
:108AFC007047C0467006002003220020034B1B7BEE
:108B0C00033BDBB29A424041C0B27047080D0020D3
:108B1C0010B5041CFFF7FEFD064B1B78A34206D1D3
:108B2C00FFF7EAFF002802D00120FFF75FFFFFF7F5
:108B3C0053FF10BD080D002070B5144BB0B01C7C59
:108B4C00FF2C20D0C022124B0D1C1968131C634340
:108B5C00C918C831061C684606F0ACFE3C21281C1E
:108B6C0008F0A8FE6B463C215870281C09F018F838
:108B7C006B46201C99706946002E02D1FFF756FBFC
:108B8C0001E0FFF7C5FF30B070BDC046080D0020F6
:108B9C007006002008B5FFF7AFFF031C0120002B67
:108BAC0002D00020FFF722FF08BD000010B5FF2304
:108BBC00072810D8C021041C081C6043C830FBF7E0
:108BCC008DFB064B1B78A34202D1FFF7E3FF01E0BC
:108BDC00FFF702FF002358B210BDC046080D00205D
:108BEC0008B5FFF789FF002800D1FEE7FFF7D2FF99
:108BFC0008BD0000024B187B43425841C0B270477D
:108C0C00080D002037B56B46164DDC1D002812D020
:108C1C00FFF7C0FF02212B6801229B78201C8B439D
:108C2C002370FBF7D7FA072003F0CAFA0020FFF7EE
:108C3C0069FD00200EE002212B68201C9B7801228C
:108C4C000B432370FBF7C6FAFFF7C6FE0120FFF7B4
:108C5C0059FD01200449FCF711FD0220FFF7AEFB82
:108C6C0037BDC04670060020B80B000010B5054B90
:108C7C001C7B631E9C41E4B2201CFFF7C3FF201C2D
:108C8C0010BDC046080D0020F0B50D1C85B0061CAB
:108C9C0002F014F82B78002B00D098E04D4B2A688A
:108CAC001A4202D1281C00F0F7FA4B4B1A7B1C1C01
:108CBC00002A07D1197C494806F083FC3068FFF77D
:108CCC0033FE84E0281C00F033FF237CFF2B2FD0D5
:108CDC0063694349326859188A4229DB217B01298F
:108CEC0001D09A4224DB00F067FEFFF705FF002855
:108CFC0002D0FFF779FD09E0C0223A4B1968237CBA
:108D0C005343CB18C8331B799B08E3736069237CEE
:108D1C00606001302370FFF707FE3368626993428D
:108D2C0002DAA360032302E06368A3600423637385
:108D3C0023783568FF2B4AD0A3689D4247DB637BC1
:108D4C000193FF2B43D0FF236373019B032B0DD0A7
:108D5C00042B30D100F010FB03200121FBF768FE3F
:108D6C000120FFF775FD0125002726E06768BD424D
:108D7C001BDA2B1C3C33A3606B463C211B79781B04
:108D8C00637349423B3008F025FE1830A073EB1B8F
:108D9C000821154A02A806F017FD02A801F006FFEB
:108DAC00A17B124806F00DFC05E00423A760637359
:108DBC000025012701E000252F1C0198FFF7A2FCDC
:108DCC00002D02D00020FFF7F9FA002FB0D105B02A
:108DDC00F0BDC04600FFFF00080D0020F948010857
:108DEC0060FAFFFF700600201D49010822490108A6
:108DFC0010B50C1C0068FFF797FD201C00F04CFA16
:108E0C0010BD0000014B187B7047C046080D0020B8
:108E1C00F7B5089F141C1D1C099E002802D01B4B83
:108E2C001B7B0370002902D0184B1B780B70FFF7CB
:108E3C0063FE002818D0002C02D0144B5B68236012
:108E4C00002D18D0114B1B7B062B0AD1684604F061
:108E5C00D1F8072001A903F0BBF9009B019A9B18DC
:108E6C0000E000232B6006E0002C00D02060002DD9
:108E7C0001D000232360002F02D0044B5B693B60C0
:108E8C00002E02D0014B1B7C3370F7BD080D002067
:108E9C00034B1B68986C431C01D1E1200001704707
:108EAC007006002038B5041E31D12B4D2B7B062BC0
:108EBC0005D1072003F084F9201CFFF705FD2B7B5F
:108ECC00042B48D1254801F071FE254B2C781A68EB
:108EDC00C0235C431419C834E87B2179142200F0B8
:108EEC007DF923790520EB73FFF70CFCFFF7D0FF1E
:108EFC00831C08D0FA239B0043431A4A191C0720F1
:108F0C0003F048F927E0072003F05AF923E0092879
:108F1C001BD1114B1A7B042A1DD11C78C0235C4336
:108F2C000F4B11491B6803321C19F434201C06F03A
:108F3C00B2FC002806D0201C0C49072206F0ABFC22
:108F4C00002808D1FFF774FC05E0062803D1024B7A
:108F5C001B7B042BF6D038BD080D002034490108CA
:108F6C0070060020ED8B0008B34801083B4901084E
:108F7C0007B548210190042201A8FBF72BF900202A
:108F8C000EBD0000034B1B68D86C431C01D12E3066
:108F9C00FF3070477006002010B5FFF7ADFD0124BF
:108FAC00002826D0144B1B7B062B22D0FFF7EAFFA0
:108FBC00002802D1FFF702FA1BE000F025F900F0BF
:108FCC0077FA0620FFF79EFBFFF7DCFFFA239B00E6
:108FDC0043430A4A191C072003F0DCF80020FFF772
:108FEC00EDF901F01FFCFBF73BFD054801F0DEFD40
:108FFC000024201C10BDC046080D00202989000843
:10900C0097460108F7B5FFF777FD00283FD0204BB6
:10901C001B7B062B06D1072003F0D2F80120FFF7AB
:10902C0053FC33E06B465D1D00232B706B469F1D7C
:10903C00FF233B706B46DE1D291C3A1C301C00F0D4
:10904C0029FBC0223478631E9C41124BA400196882
:10905C000F4B1B785343CB18C8331B785B0708D5D1
:10906C00301C291C00F064FA3378002B01D0022349
:10907C001C432B78002B01D0FFF7DAFB002C01D11D
:10908C00FFF78AFF3978201CFCF7F6FB0120FEBDA8
:10909C00080D002070060020F7B5FFF72DFD002805
:1090AC0038D01D4F3B7B062B06D1072003F088F8E8
:1090BC000120FFF709FC2CE06B465D1D9E1DDA1D9F
:1090CC00311C281C00F01AFBC0222C78631E9C411A
:1090DC00124BA40019683B785343CB18C8331B7848
:1090EC005B0708D5281C311C00F038FA2B78002BB4
:1090FC0001D002231C433378002B01D0FFF798FBDF
:10910C00002C01D1FFF748FF6B46201CD979FCF7E6
:10911C00B3FB0120FEBDC046080D002070060020E8
:10912C0007B54C210190042201A8FBF753F800204D
:10913C000EBD0000F0B5041C1E1C85B0171C104A97
:10914C000D1C06F041FB7308261C0093E3180193D9
:10915C00019B9E420AD0BB1C381C03A9102203930E
:10916C0006F0F3F93074039F0136F1E7009A002101
:10917C001032A018AA1A06F0A6FB05B0F0BDC04626
:10918C009545010870B5134CA368616860788B42F3
:10919C0003D3002100F07AFE1BE02678851B002B00
:1091AC0005D06B43181C08F085FB3618F6B2301C42
:1091BC00002100F06BFEEB17E9185940606808F0CD
:1091CC0079FBA368011CC318034A0620A36002F0B4
:1091DC00E1FF70BD200D00209191000810B5FA241C
:1091EC00A4005443074B187059705C60002A04D1DA
:1091FC00081C111C00F04AFE03E000229A60FFF7E5
:10920C00C1FF10BD200D002010B50620002102F07A
:10921C00DFFF041C0120002C03D1053002F0D0FF2D
:10922C00201C10BD08B5044B00229B5E002B01D006
:10923C0000F0B8F908BDC0462C0D002010B586B062
:10924C0001A803F0D7FE002398420ED102AC01A86E
:10925C00211C02F02DFEE1233C22A1781B01594375
:10926C00637820785343CB181B18181C06B010BD1C
:10927C0038B5084D0023C25E00216B5E9A4208D0BF
:10928C00041CFF21102206F01EFB2B8823800023D8
:10929C00A37038BD2C0D0020064B10B5028900249C
:1092AC00195F914205D01A808279034B1A70FFF72F
:1092BC00B9FF10BD2C0D00202E0D0020F8B50B4B66
:1092CC0001271B88002B0ED00C1C061C072118B282
:1092DC00151C08F065FC0723002731702B70044B1C
:1092EC001B6858332360381CF8BDC0462C0D002079
:1092FC0070060020F0B51B4B9FB01C880120002C81
:10930C002DD00D1C20B2072108F04AFCC8B2291C34
:10931C00E21F93B201930E1C02AA03019C469B18F8
:10932C00A4CEA4C336681E6000228B5E013302D02B
:10933C00624602ABD452002802D00138C0B200E021
:10934C000620013C019BA4B21031A342E3D102A838
:10935C0058217022FAF73EFFFFF764FF00201FB080
:10936C00F0BDC0462C0D002008B558207021FAF72E
:10937C00B5FFFFF757FF08BD10B5164B9CB01C8806
:10938C00002C24D0144B702219686846583106F012
:10939C0091FA20B2072108F003FCCCB224016C44F2
:1093AC00201CFFF765FF63680C4ADB03DB0B934261
:1093BC000DD1FFF743FF6268C003C30B500C400490
:1093CC0018436060582168467022FAF703FF1CB0FE
:1093DC0010BDC0462C0D002070060020FFFF0100C0
:1093EC0010B5164B9CB01C88002C24D0144B70224A
:1093FC0019686846583106F05DFA20B2072108F06A
:10940C00CFFBCCB224016C44201CFFF731FFE36886
:10941C000C4ADB03DB0B93420DD1FFF70FFFA26865
:10942C00C003C30B500C40041843A060582168467D
:10943C007022FAF7CFFE1CB010BDC0462C0D0020D8
:10944C0070060020FFFF010010B5164B9CB01C8865
:10945C00002C25D0144B702219686846583106F040
:10946C0029FA20B2072108F09BFBCCB224016C44F2
:10947C00201CFFF7FDFEE3680C4ADB03DB0B934279
:10948C000ED1FFF7DBFE0122A37BA081000C104064
:10949C0093431843A073582168466F32FAF79AFE2B
:1094AC001CB010BD2C0D002070060020FFFF010029
:1094BC0010B5114B9CB01C88002C1AD00F4B70228D
:1094CC0019686846583106F0F5F920B2072108F002
:1094DC0067FBCCB224016C44201CFFF7C9FEA378B7
:1094EC0068460133A37058217022FAF773FE00F01E
:1094FC00BBF81CB010BDC0462C0D0020700600201F
:10950C0008B550210122FAF765FE08BD044B002076
:10951C001B6850331A787F2A00D8181C7047C04635
:10952C007006002008B550200121FAF7D7FE08BDBF
:10953C0010B50124084B1A6850321278224001D021
:10954C000C7000E00A701B6850331A780623134025
:10955C0000D00123037010BD7006002010B501244B
:10956C00094B1A6850321278224001D00C7000E07E
:10957C000A701B6850331B789B0701D5002300E051
:10958C000123037010BDC04670060020044B002060
:10959C001B6851331A787F2A00D8181C7047C046B4
:1095AC0070060020244BF7B51D682B1C51331B781B
:1095BC007F2B40D80024214B07211C70204B002608
:1095CC009E5F301C08F0ECFA2A1C543217780722E4
:1095DC001C4B17401B78C9B2019700920801281840
:1095EC0058300022875E7A1C0FD0F71B062F0CDC3C
:1095FC005327BC46AC4467463F78002F05D0012763
:10960C009F4002D080782418E4B2019A934210D083
:10961C00002902D00139C9B200E00621002B02D08A
:10962C00013BDBB200E00623009A013A0092002ACB
:10963C00D4D1024B1C70F7BD700600202F0D0020FA
:10964C002C0D00202E0D002008B551210422FAF714
:10965C00C1FDFFF7A7FF08BD08B551200421FAF79B
:10966C003DFEFFF79FFF08BD074B1B6853331B786C
:10967C00002B08D0054B1A780123934003D0044AE1
:10968C001378013313707047700600202E0D0020E4
:10969C002F0D0020F7B5174D2B68AC461C1C019301
:1096AC00523426780024FF2E03D104700C701670EF
:1096BC001FE0114F3B78B34207D204700C702B683B
:1096CC00397852331B785B1A12E00124019B513319
:1096DC001B78234001D00C7000E00B7063461B68B4
:1096EC005133197806230B4000D00123037000235B
:1096FC001370F7BD700600202F0D0020F7B5184D24
:10970C002B68AC461C1C0193523426780024FF2E87
:10971C0003D104700C70167020E0124F3B78B342EA
:10972C0007D204700C702B68397852331B785B1A93
:10973C0013E00124019B51331B78234001D00C70A2
:10974C0000E00B7063461B685133197800238907BE
:10975C0001D5037001E0012101701370F7BDC04603
:10976C00700600202F0D00207047000038B5FA2439
:10977C00084DA400A86929886043614308F09AF851
:10978C002B69221A5A43EB68211C5843101808F015
:10979C0091F838BD300D002038B5FFF7E7FFC02138
:1097AC00051C0C204901684308F084F8044CC021C6
:1097BC00A08314204901684308F07CF8E08338BD8D
:1097CC00300D0020002108B50A4B5A680A48085889
:1097DC00824203D804312029F8D100E0121A9A6091
:1097EC009968FA239B0059430820044A02F0D2FCE2
:1097FC0008BDC046300D002058490108B99A000830
:10980C00012108B5074A022093788B4300219370FD
:10981C00FBF70EF90020011CFBF7A8FA072002F059
:10982C00CFFC08BD300D0020F8B50388002B60D0AC
:10983C00051C314EFFF7AEF92B88304CB34201D1E9
:10984C00E123DB0001222380AB7813422CD0A378D8
:10985C0027881343A3702A4B1A682A4BD35CFF2B1F
:10986C0001D1294B00E01B02E360DA23DB00D35C5F
:10987C00FF2B01D1244B00E01B02022001212361AC
:10988C00FBF7D6F8FA239B005F43A761FFF784FF31
:10989C00002302222375A378A18B134307201B4AB4
:1098AC00A37002F077FC01E0FFF7AAFF2B88B3420C
:1098BC0019D0134B1A68164BD35C002B13D0AB7812
:1098CC009B0710D5281C00212830124A00F042FDBD
:1098DC00EB79FF2B01D1104B1B78E370E078002162
:1098EC0000F0D4FA01E000F013FF23886360FFF767
:1098FC0069FF0020F8BDC046FFFF0000300D0020BE
:10990C0070060020CF060000102700001D9A0008EA
:10991C00F206000075970008CD010020032210B557
:10992C008178031C0A4004D1134805F05FFE3220F5
:10993C0021E004881148844202D1E120C000188043
:10994C009A701A79642A01D964221A71DA79642A14
:10995C0001D96422DA711A7AFF2A01D100221A7213
:10996C001A1C283214783020FF2C04D100241470D7
:10997C0001220A409A7010BD78490108FFFF0000CF
:10998C0073B50C4E7368002B01D1012410E0051C3B
:10999C0001A9082002F01CFC041EF6D1FA21019842
:1099AC00890007F087FFB368C01A7368C018286075
:1099BC00201C76BD300D002008B5094B32205A68AA
:1099CC00002A0CD000225A6000F02CFFFFF718FF81
:1099DC00072002F0F5FB082002F0F2FB302008BD56
:1099EC00300D002008B5074B5B68002B06D1064BE9
:1099FC001868064BC018FFF717FF01E0FFF7DCFFF4
:109A0C00012008BD300D002070060020CA060000A1
:109A1C00F7B50222224EB378351C347D134207D0A1
:109A2C000134E4B23475C02C26D19343B37023E0D7
:109A3C00013CE4B23475002C1ED10194FFF796FE64
:109A4C00071C01A803F0D6FA3A1CB3691548019912
:109A5C0005F0B7FD0222B3781343B370B369002B42
:109A6C0002D1FFF7A9FF19E0BB4202D9DF1BB76196
:109A7C0000E0B461FFF790FEAB789B0701D5A98B92
:109A8C0000E0E98B0720084A02F084FB0E21287DB8
:109A9C0007F010FFC1B20120FBF768F9F7BDC04613
:109AAC00300D0020994901081D9A0008002010B5BE
:109ABC000E4A51680E4B8400E358994202D801308B
:109ACC000828F7D19468A14202D1FFF775FF0CE08A
