:020000040800F2
:100000000040002061010008690100086D0100083E
:1000100000000000000000000000000000000000E0
:10002000000000000000000000000000890100083E
:1000300000000000000000008D010008E911000828
:100040005D01000800000000D51300085D010008F4
:100050005D0100085D0100085D010008310F000826
:10006000000000005D0100085D0100085D0100085E
:100070005D0100085D0100085D010008000000004E
:100080005D0100085D0100085D0100085D010008D8
:100090005D0100085D0100085D0100085D010008C8
:1000A0005D0100085D0100085D0100085D010008B8
:1000B0004114000879140008000000005D010008E8
:1000C00008B501F08BFD194B194A1360194A1360EA
:1000D000194B1A4A03E011681960043304321849B5
:1000E0008B42F8D3124B1A68164B9A4204D1114B2B
:1000F0001A68154B9A4200D0FEE70C4B134A136066
:10010000134A1360134B02E000221A600433124AB0
:100110009342F9D30D4B1B68002B03D10C4B1B688A
:10012000002B00D0FEE700F0B9F9C046BABADECA2B
:10013000140100209401002014010020643D0008F7
:100140009801002078563412325476989801002095
:10015000780D0020980100207C0D002000BE704723
:1001600008B5FFF7ADFFC04600BEFEE704207146AC
:10017000084202D0EFF3098001E0EFF308807146F6
:10018000044A104700BEFEE700BEFEE700BEFEE7E1
:08019000704700008501000822
:100198000522014B1A7070479C01002038B50948A8
:1001A8000D2101F0DFFB9024E4054025A562C8205D
:1001B800400000F0F1FFA56100200349034A00F068
:1001C800F7FF38BD703B000830750000A501000836
:1001D80008B50F4B187843425841C0B200F032FBC3
:1001E800002811D10B480E2101F0BCFB06220A4B56
:1001F8001A70023A094B1A70FFF7D0FF002008491D
:10020800084A00F0D5FF02E0012000F095FB08BD88
:10021800B80A0020803B00089E0100209F010020B2
:10022800307500009901000808B5104B02E0013054
:100238001A7001330278002AF9D15A1C0C4909783E
:10024800C90701D5312100E030211970074BD21AB6
:1002580092B20220412100F051FC00200549064AD3
:1002680000F0A6FF0122054B1A7008BDA605002064
:100278009E010020A861000099010008990500204E
:1002880010B582B00379732B00D198E008D8442BBD
:1002980073D0722B00D184E0422B00D0D3E03AE037
:1002A800AA2B0AD003D87C2B00D190E0CBE0CD2B31
:1002B80020D0D02B00D1BCE0C5E00022634B1A70DF
:1002C800634B1B78042B00D0BDE0624B1B785B07A7
:1002D80003D56148FFF7A8FFB5E002209621002268
:1002E80000F00CFC00F0F0FD00205C495C4A00F0D6
:1002F8005FFFA8E0C378AB2B00D0A4E059480A21DF
:1003080001F030FB0322524B1A7000205649544A20
:1003180000F04EFF97E0847AFF2C14D1FFF73EFFE0
:1003280000F08EFB4B4B1B785A0709D504229343E8
:10033800484A137000204D49494A00F039FF82E0CD
:10034800FFF746FF7FE060000019C000642103F05A
:1003580087FA011C002000F01BFB201C0A21002248
:1003680001F0E0FA4248012101F0FCFA0020FA21EC
:1003780049013B4A00F01CFF65E00A314118019130
:100388000A3001A90A2201F06DFA041C002039493B
:10039800334A00F00DFF00F0F3FA201C00F0ECFCEB
:1003A80051E00022294B1A70294B1B78022B4AD0A6
:1003B8000220732100F0A2FB00F0E8FB43E02E4A84
:1003C8002E4B9A60FFF7EAFEFFF702FF3BE0214B56
:1003D8001B789B0737D5837DDB0706D433E00133D1
:1003E800274803600A70013100E02649244B1B6846
:1003F8001A78002AF3D1244B1B6801330AD12D2324
:100408000B70013108E0204B9B1840331B780B70B0
:10041800013201311B2AF6DD2F230B708B1C6C2255
:100428004A70184A9A1A92B20220D02100F066FB4C
:1004380009E00A3015490E2201F0EEF9002802D130
:100448001348FFF7F1FE02B010BDC0469905002021
:100458009F0100209E010020903B0008102700000B
:10046800990100089C3B000840420F00A08601004B
:10047800883C000830750000AAAAEFBEC000002022
:100488001C010020A6050020003E0008A83B00082B
:10049800B83B000810B582B000F010FA554B1B7B32
:1004A8009B0704D4544A117801230B431370534A11
:1004B800534BDA60534B5B6800F03CFA9022D2054C
:1004C8001168514B0B40802149010B431360494B84
:1004D8001B685A1C02D0474A926800E04B4A013315
:1004E80001D14A4B00E04A4B4A49097800914A48F1
:1004F8000D2101F0E7F900F025FE00F0A1FA002037
:1005080000F088FA03090F221340902149038C4612
:1005180063449B0210400E3A82401B6913420BD180
:100528003E4A117801230B43137004223C4B1A7086
:100538003C48082101F016FA012000F06BFA030983
:100548000F221340902149038C4663449B021040BC
:100558000E3A82401B6913420BD1304A11780623A8
:100568000B43137004222E4B1A702F48032101F0FD
:10057800F9F92B4B1B78002B08D0FFF70FFE002052
:100588002A492B4A00F014FE012419E01C4B5A6832
:1005980000215960274B9A420FD12748023101F0B8
:1005A800E1F9174B9C6800202049214A00F000FE21
:1005B800201C00F0E1FB002402E0FFF709FE012403
:1005C80000F072FE002C02D0FF2000F077FE201C05
:1005D800012100F0DDF9194B1B78052B02D1002011
:1005E80000F0AAF900F0DEFB00F048FA00F0FEFD8A
:1005F800F1E7C046003E000898050020003E0008CC
:10060800C0000020D0000020FFCFFFFFA43C00085E
:10061800403E0008B80A0020C83B00089E010020A0
:100628009F010020F03B0008FC3B000860EA000046
:1006380099010008EEBEEFBE003C00089C010020B6
:100648000023002207490B8007490B8007490A70DD
:1006580007490B8007490A7007490A70074A13803F
:100668007047C046A8010020A2010020A701002071
:10067800A0010020AA010020A6010020A40100205A
:1006880008B5204B1B78002B04D01F48032101F02C
:1006980069F936E01D4B1B78002B09D01C4B1B88D1
:1006A8009BB21C4A13800023164A1370174A137012
:1006B800194A13889BB21949C85413889BB2184A1F
:1006C800934203D10022144B1A8004E0124A138883
:1006D80001339BB21380104B1B880E4A12889BB2C1
:1006E800934202D10122074B1A700B4B1B88084A10
:1006F80012889BB2934202D101220A4B1A7000F071
:100708003BF908BDA70100203C3C0008A6010020D9
:10071800A0010020A2010020A8010020C806002096
:10072800E7030000AA01002038B53F4B1B889BB2A5
:10073800002B04D03C4B1B889BB2012B09D1AA2863
:1007480007D03A48032101F00DF90022364B1A80F0
:1007580069E0354B1B889BB2354A934204D8324B2B
:100768001B889BB2334AD0542F4A138801339BB25B
:10077800138013889BB2042B55D92E4B1A79DC7839
:1007880024021443732C1CD0274B1B889BB2092BC3
:1007980049D9284B5A7A1D7A2D021543224B1B88BA
:1007A8009BB22A1C0A3293423DDB1F4B1B889BB22B
:1007B800FA229200934205D91F48032101F0D2F88A
:1007C80000E000251D48042101F0CCF8201C0A2176
:1007D800052201F0A7F8702C0DD1022D0BD9154C6C
:1007E800E07A1021022201F09DF8E91E201C0C304D
:1007F80001F0B8F80BE0632D05D80E480A30291C23
:1008080001F0B0F803E00E48112101F0ABF80A201E
:1008180001F07EF80748291CFA229200FFF730FD04
:100828000022014B1A8038BDA4010020403C00087A
:10083800E7030000AC010020443C0008483C0008E5
:10084800503C000810B5174B1B68174A1268013254
:1008580022D05A1C02D1431E984120E0134A126943
:10086800120604D5114A1249516012495160041CFC
:10087800181C00F095F90D4A116980230B43136188
:10088800084B5B68834209D00B48022101F06AF8E3
:10089800201C441EA04102E0002000E0012040B2DC
:1008A80010BDC046F8BF0108004000080020024003
:1008B80023016745AB89EFCD943C000808B50121B9
:1008C80049428023154AD150154B5B6A1B010AD552
:1008D800144A0023136053609360D360124A136074
:1008E80053609360D3600E4A536A802149040B43D6
:1008F800536201F089FB0D4B1B78AA2B02D0CC2B3D
:1009080004D007E000220A4B1A7006E00222084BC6
:100918001A7002E00122064B1A7008BD00E100E0DF
:1009280000100240D0000020C000002000F8FF1F87
:10093800B80A00207047C04610B50B4C0B48211C64
:10094800C02200F079FF012149428023084AD15092
:10095800084A11687D3B0B4313606368226882F381
:100968000888984710BDC0460040000800000020D5
:1009780000E100E0000001407047C0467047C046F3
:10098800024A1378013313707047C0469D01002056
:1009980030B583B0051C0C1C01A800F001FD002D2A
:1009A80004D001980A49002200F04EFC00236A4650
:1009B8001370084B1B78537094700123D3700198FF
:1009C8006946FF2200F040FC00F0F0FC03B030BDA7
:1009D8006C3B00089D01002010B543001818C000AA
:1009E80002F03EFFC4B2084B1B78A3420AD0002095
:1009F8000649074A00F0DCFB0020211CFFF7C8FF6E
:100A0800014B1C7010BDC0461801002010270000C3
:100A180099010008094B1B68002B09D1074B1B7B68
:100A2800DB0705D4002801D1193006E02D2004E0A9
:100A3800002801D12D3000E019207047003E000841
:100A480008B5FFF7FDFD02200249034A00F030FD1A
:100A580008BDC046890600084906000808B50028F0
:100A680001D1044900E0011C0220034A00F020FDE6
:100A780008BDC046890600084906000808B51AE0FE
:100A8800134A13889BB21349C85C13889BB2124A55
:100A9800934203D100220E4B1A8004E00C4A1388BB
:100AA80001339BB2138000220C4B1A7001320C4B9D
:100AB8001A70FFF739FE094B1B78002BE0D1094B60
:100AC8001B88034A12889BB29342D9D108BDC046FD
:100AD800A0010020C8060020E7030000AA010020AA
:100AE800A6010020A8010020034BDB691B06FBD5EB
:100AF80080B2014B188570470044004010B5141CA3
:100B08000A3496235B009C4200D900BE1A4B1B781E
:100B1800002B04D01948252100F024FF1EE0184BB3
:100B2800AA241C705C7098700020D87019715871D4
:100B3800110A19725A729871D87100210AE0104B83
:100B4800585C104BDB691B06FBD583B20D48038547
:100B5800013189B2131C0A339942F0DB0A48042197
:100B680000F000FF064B1A79D878000210430A21DA
:100B7800052200F0D7FE10BD99050020643C00084E
:100B88009C050020004400408C3C0008034BDB69B6
:100B9800C0221340C02BF9D17047C0460044004022
:100BA800F0B583B0C71CBF08BF00002000250EE0C9
:100BB800094BEB181C68230A260C0194E2B21118A1
:100BC800DBB25A18F0B28318240EE0180435BD427F
:100BD800EED303B0F0BDC0460040000808B5064B90
:100BE8001B78832B06D8591C034A1170034AD0542A
:100BF800FFF7C4FE08BDC046B40A0020C80600209E
:100C0800024A116980230B43136170470020024098
:100C180010B51548032100F0A5FE144C0EE0201C69
:100C280002F0D6F9124802F055F9124A1369022166
:100C38008B43136180231B019C4664440E4B9C42EA
:100C4800EDD90E48032100F08DFE084C08E023681A
:100C5800013304D00A48042100F084FE00BE0434A5
:100C6800054B9C42F3D910BD983C00080040000891
:100C780050C3000000200240FFBF01089C3C000850
:100C8800A03C000808B50830C0235B02984204D98C
:100C980009480B2100F066FE00BE084B1B691B06C5
:100CA80004D5064B064A5A60064A5A60FFF7B0FF59
:100CB8000022054B1A6008BDA83C0008002002402D
:100CC80023016745AB89EFCDB00A0020F0B5474650
:100CD80080B4061C884600241FE0355D321953781D
:100CE8001B02EB1895782D045B19D5782D065D1934
:100CF8000E4F3B68E1180E4B9C46614402202A1CAB
:100D0800002302F015F93B68E318094A9446634446
:100D18001B689D4200D000BE04344445DDD3034B1C
:100D28001A6842441A6004BC9046F0BDB00A00201C
:100D38000040000870B582B0051C0090FFF730FF36
:100D4800061C0190002409E0A300094A99186A4684
:100D58009A580220002302F0EBF80134012CF3D951
:100D6800044803492A1C331C00F0ACFD02B070BDD6
:100D7800F8BF0108B43C000810B5074C20600122F8
:100D8800064B1A800648FFF769FE2068FFF77AFFCE
:100D98001520FFF7A9FE10BD94050020B60A002013
:100DA800E50B000838B5424B1B78002B00D17EE0DC
:100DB800012B4AD13F4B1C88E401201C80383E4B54
:100DC8001968FFF709FE3D4B1878042804D0182845
:100DD80002D0012833D138E0374B1D68AC42AD4111
:100DE8006D421021022200F09DFD0A2000F090FDC6
:100DF800002D08D1304B1868FFF79CFF0020FFF743
:100E080021FD0028F6D0FFF7FBFE0020FFF726FEA5
:100E18000022274B1A70002D01D0152000E0062073
:100E2800FFF762FE002D10D0244B1978224B1B6867
:100E38002348221C00F046FDFFF7CAF905E000220E
:100E48001B4B1A701520FFF74FFE194B1B78842B8C
:100E58002DD11A4B58781021002200F063FD0A208A
:100E680000F056FD0022124B1A70032305E01349C7
:100E7800C95C8A18D2B20133DBB2822BF7D983233B
:100E88000E49CB5C934203D01520FFF72DFE0EE0F0
:100E98000C4C201C8021FFF719FF033C00236370D2
:100EA800044A1388013313800620FFF71DFE38BD5E
:100EB800B40A0020B60A002094050020C8060020C5
:100EC800D03C0008CB06002010B5114B1B691B064F
:100ED80004D50F4B0F4A5A600F4A5A600F4C0EE068
:100EE800201C02F075F80E4801F0F4FF084A136957
:100EF80002218B43136180231B019C466444094BE8
:100F08009C42EDD9024A116980230B43136110BD3D
:100F18000020024023016745AB89EFCD00F00108AE
:100F280050C30000FFFF0108042208E0054B59697F
:100F3800012393400B4201D002494B6101320E2A32
:100F4800F4DD70470004014000B583B00D4A916993
:100F5800012001439161936903400193019B063885
:100F68000021002201F082F80220404200210022E4
:100F780001F07CF8012040420021002201F076F8BF
:100F880003B000BD0010024000B587B002680C4BEA
:100F98009A4213D10B4A916980239B0019439161AE
:100FA800926913400093009B02230193013302933B
:100FB80000230393044801A901F0F8FC07B000BD21
:100FC80000240140001002400004004882B002687A
:100FD800064B9A4208D1064A5169402001435161A3
:100FE800536903400193019B02B0704700300240EF
:100FF8000010024000B587B002680F4B9A4218D122
:10100800C023DB01019312230293113B03930233A4
:10101800049302330593094801A901F0C7FC084A63
:10102800D1698023DB031943D161D269134000934E
:10103800009B07B000BDC0460058004000040048AF
:101048000010024008B50268084B9A420DD1084AC0
:10105800136A802109020B43136202200021002237
:1010680001F004F8022001F033F808BD0028004020
:101078000010024000B589B00368254A934220D188
:10108800244AD16980239B021943D161D269134054
:101098000193019B0C2303930A3B0493013B0593A3
:1010A8000322069207939020C00503A901F07EFC55
:1010B8001C200021002200F0D9FF1C2001F008F8B4
:1010C80023E0154A934220D1124AD1698023DB02DA
:1010D8001943D161D26913400293029BC0231B01BB
:1010E800039302230493013B0593023306930133D0
:1010F80007930A4803A901F059FC1D20002100228A
:1011080000F0B4FF1D2000F0E3FF09B000BDC046A9
:10111800004400400010024000480040000400481D
:1011280008B5064B1A6801321A60054A12681B682E
:101138009A4201D800E000BF08BDC046780B0020E5
:10114800740B002008B50F480021B82200F080FB7E
:101158000D4B1868FA21890002F082FB01380B4B0D
:1011680098420DD80A4A50600A490B6A1B021B0AAA
:10117800C020000603430B6200239360073313600B
:1011880008BDC046BC0A002028010020FFFFFF0060
:1011980010E000E000ED00E0044B1B68181800E0C8
:1011A80030BF024B1B688342FAD37047780B00208C
:1011B80010B5084B1B685918C400074BE150074B82
:1011C8001B68994201D2054B1960C000024B1818E0
:1011D800426010BD780B0020BC0A0020740B002070
:1011E80008B5FFF79DFF00F0CBFF08BD38B5012516
:1011F8006D4200241CE0E300104AD3185A68002A04
:1012080015D0E3000D495B58002B10D00C49096834
:101218008B4204D8E3000020084958509047E30067
:10122800064A9B58002B02D09D4200D91D1C013450
:10123800162CE0D9034B1D6038BDC046BC0A0020FF
:10124800780B0020740B002008B54368984708BD48
:1012580010B5172922D8072A20D811480078C007C6
:1012680002D51720401AC1B2072902D81032D2B2CB
:1012780008E00F2904D80839C9B20832D2B201E00F
:101288001039C9B207480468A47964B26243511896
:1012980089B25A1E9341DAB200F046F910BDC04631
:1012A800980500207C0B002008B50248024900F090
:1012B8009FFA08BD7C0B0020E03C000838B5051CEF
:1012C800002407E0E000054BC018290900F09AFA4D
:1012D8000134E4B2002CF5D038BDC0467C0B0020A8
:1012E80038B50D1C00240BE0E000074BC018002D9A
:1012F80001D1002100E0FF2100F030F90134E4B20F
:10130800002CF1D038BDC0467C0B0020F0B54F460C
:1013180080B482B000908946171C0C78002C16D136
:101328004B78002B13D11D4B1B680A1C0221515608
:1013380006229A5691420AD14A46D27852B25B792D
:101348005BB29A4203D1391CFFF7CAFF22E04B4631
:101358009B78E318DBB201934B465D78DB78ED1898
:10136800EDB211E04B465A7808E0D6B2E1B20098E7
:10137800321C3B1CFFF76CFF721CD2B253B269B22D
:101388008B42F2DB0134E4B263B26A46127952B29C
:101398009342E7DB02B004BC9146F0BD7C0B002011
:1013A800014B03607047C0462001002010B500249F
:1013B80006E0E000044BC01800F082F90134E4B202
:1013C800002CF6D010BDC0467C0B002008B50E4B93
:1013D8009B685B0413D50C4BDB685B050FD50A4A89
:1013E800D1680A4B0B40D360094A117801230B439B
:1013F800137000E000BF074A53680133536080222E
:101408005203054B5A6108BD00280040FFFBFFFF4F
:10141800840B0020D00000200004014008B5C369F7
:1014280002689B0606D5930604D5808CC0B20029B5
:1014380000D0884708BDC04608B50A4BDA691B6862
:10144800130705D1084B19680648FFF7E7FF04E0C2
:10145800064B1B68002B00D0984741225242014B93
:101468001A6208BD00440040900B00208C0B00203D
:1014780008B50C4BDA691B68110709D192060CD51F
:101488009B060AD5084B19680648FFF7C7FF04E012
:10149800064B1B68002B00D0984701225242014B93
:1014A8001A6208BD00480040940B0020880B0020F9
:1014B80010B5022802D0032805D008E0124C21609C
:1014C80012490A6003E0124C216012490A6002289E
:1014D8000ED002D8012805D00BE0032804D0042838
:1014E80004D006E00C4B04E00C4B02E00C4B00E08F
:1014F8000C4B996801220A439A601A6890214900A6
:101508000A431A6010BDC046900B00208C0B0020C7
:10151800940B0020880B0020003801400048004050
:10152800004C004000440040002A0BD04068CA0824
:1015380007231940063B8B40191C83189A781143DE
:1015480099700AE04068CB0807221140063A8A40A1
:10155800111CC3189A788A439A70704730B5056889
:10156800002204E043689B1899700132D2B2052426
:101578002C570623EB566343DC17640FE318DB1084
:101588009A42EFDB30BDC046F0B55F4656464D4641
:101598004446F0B49046002A00D18BE00668B37840
:1015A8001C099022520394466444A4020F2213405B
:1015B8000120051C9D40A562347863B21B111340BD
:1015C80063449B0222409040021C18685243540016
:1015D800A418A04302431A600722434613409C46BE
:1015E80001D108339C464B1C99460B789A466346B2
:1015F800581EC0B234E071784BB21B090F22134059
:1016080090246403A3465B449B020F2739400125BD
:101618002C1C8C409C6231784BB29B4644B253469A
:1016280023411C1C5B461B0913409022520393461E
:101638005B449B0239402A1C8A40254201D09A61AA
:1016480000E09A6271780B099022520393465B443A
:101658009B020F2421400E3C8C409C610138C0B293
:1016680043B2002BC7DA434662469A1A93B29846A9
:10167800494608239C464346002BB4D133785AB2D6
:1016880012110F210A4090204003844662449202BE
:101698000B400120041C9C40231C14685B435D0024
:1016A800EB189C431460B278130963449B02114001
:1016B800884098613CBC90469946A246AB46F0BD2E
:1016C80008B50268064B41680B8041680523D3566C
:1016D800927952B25A430A3292B2FFF755FF08BDC7
:1016E8000280FFFF08B5490080231B0119430B0244
:1016F800090A19434368198041680C22FFF744FF1F
:1017080008BDC046F0B583B001908A7856B236114C
:101718000F250F20064090235B039C466644B602C3
:10172800024001231C1C9440221C37686243540069
:10173800A418A7433A4332608E7872B212092A403D
:101748006244920206401C1CB44094614A7856B226
:10175800361106406644B60202401C1C9440221C06
:10176800376862435400A418A7433A4332604E785E
:1017780072B2120915406544AD0206401A1CB24007
:10178800AA610D786AB2121102406244920228409E
:10179800834010685B435D00ED18A8430343136062
:1017A800CB785AB2002A17DB12110F20024062448C
:1017B800920203400126341C9C40231C1568634395
:1017C8005F00FF18BD432B431360CA7813096344B5
:1017D8009B02104086409E61019C201C0121FFF75E
:1017E80081FF201C0321FFF77DFF03B0F0BDC04639
:1017F80008B50160024B4360FFF784FF08BDC0468F
:10180800E000002008B50F2900D90F21A0231943B3
:10181800FFF768FF08BDC04610B508E003780A78EE
:10182800934201D0981A06E001300131221C541E5F
:10183800002AF3D1002010BD10B5031C04E00A787B
:101848001A70221C01310133541E002AF7D110BD31
:1018580010B5031C02E01970221C0133541E002A23
:10186800F9D110BDF0B5041C002902D00E68002E75
:1018780001D1261C643600201DE02378DDB22F1C20
:10188800303F092F04D850435BB2C018303811E0FC
:10189800102A12D12F1C613F052F04D850435BB288
:1018A800C018573806E0413D052D06D850435BB2B5
:1018B800C01837380134B442DFD3002900D00C6097
:1018C800F0BDC0460FB400B5A3B024AB04CB219340
:1018D80001A8802100F05AF8011E03DD01A800F0DC
:1018E80041F8011C081C23B008BC04B01847C046C6
:1018F80010B5041C01F0ACFF011C201C00F032F8EC
:101908000248012100F02EF810BDC046883C0008AE
:1019180000B583B0019001A8012100F023F80198D7
:1019280003B000BD10B586B0041C0B1C002A01D101
:10193800102100E0111C002A05D00A2B01D1202219
:1019480002E0302200E00022009202A8221C00F0EF
:10195800DDF8041C02A8211C00F004F8201C06B0C5
:1019680010BDC04638B509E0451C074B1B6899688F
:10197800007840B200F074FB211C281C4C1E002982
:10198800F2D10120404238BD90010020F0B54F4609
:101998004646C0B487B0061C0D1C99460024511C4D
:1019A8001378252B00D099E0931C98465378732B15
:1019B80015D14B461B68039304229446E144181C36
:1019C80001F046FF071C2018A84200D92F1B301928
:1019D80003993A1CFFF730FFE41942468AE0252BA9
:1019E80002D13355424685E0632B08D14B461B781C
:1019F80004229446E1443355013442467AE0302BC0
:101A080001D0202B04D1D11C88460393937801E0A0
:101A1800002203921A1C313A082A0DD80023059394
:101A28004046013805A90A22FFF71CFF071C059B41
:101A38005A1C90461B7800E00027752B03D0782BA2
:101A480001D0642B2ED1642B0BD14A461168042295
:101A58009446E1440A1E09DA2D22325501344A42DD
:101A680004E04A46126804218C46E1443019002FEC
:101A780001D1291B00E0391C782B01D1683B00E01B
:101A88000A23002F06D0039F002F01D1203702E040
:101A9800039F00E000277FB2009700F037F8241872
:101AA800424627E0732B17D14B461B680393042249
:101AB8009446E144181C01F0CBFEB84200D8071C3C
:101AC800E319AB4200D92F1B301903993A1CFFF7D1
:101AD800B3FEE41942460DE001F0B0FE002B03D03E
:101AE800335501340A1C05E0AC4208D036190023EE
:101AF800337004E0AC4200D851E701F09FFE201C8F
:101B080007B00CBC90469946F0BDC046F0B55F469C
:101B18005646C0B483B0061C0F1C141C9A460AAB68
:101B28001B785BB29B46002A33D14B1E3022C2542D
:101B3800012531E05346102B03D10F212140240900
:101B48001CE00094002C0FDA6308524652080093F8
:101B5800181C0192111C01F013FF041C0098019934
:101B680001F0F4FF89B209E0201C514601F008FF9A
:101B7800041C0098514601F0E9FF89B20135092992
:101B880003D87B1B3031F15404E07B1B5731F154EF
:101B980000E00025002CCDD15B46002B08D0BD42CB
:101BA80006D27A1B301C5946FFF752FE3D1C0AE04C
:101BB800BD4208D0791B002303E0F218505C107076
:101BC8000133AB42F9D3281C03B00CBC92469B46A8
:101BD800F0BDC04608B500F001F808BD134B1A68FF
:101BE80001210A431A605868114A02405A6018686D
:101BF800104A02401A6018680F4A02401A60586872
:101C08000E4A02405A60DA6A0F208243DA62186B81
:101C18000B4A02401A63186B802202431A635A6BFC
:101C28008A435A6300229A607047C04600100240F7
:101C38000CB8FF08FFFFF6FEFFFFFBFFFFFFC0FF2A
:101C48006CFEFFFFF0B58BB0494B59698022120337
:101C58001143596159690A400192019A59698022D0
:101C6800D2031143596159690A400292029A59698B
:101C7800802292021143596159690A400392039ADA
:101C880059698022D202114359615B691A40049252
:101C9800049B80239B010593364D069501260796E4
:101CA800354805A900F082FE344B059306960024BA
:101CB800079408949020C00505A900F077FE304FDE
:101CC80005970696079408942E4805A900F06EFE1D
:101CD8002D4B0593069407942A4805A900F066FE43
:101CE80080235B000593FE3B0693079408940994B0
:101CF8009020C00505A900F059FEC0231B010593DB
:101D0800224B069307969020C00505A900F04EFEC9
:101D180080231B020593069407949020C00505A90B
:101D280000F044FEFC239B00059306950796154892
:101D380005A900F03BFE9020C0051549002200F0DF
:101D4800FBFE9020C0059C218900012200F0F4FED2
:101D58000C48391C002200F0EFFE07200021002269
:101D680000F084F9072000F0B3F90BB0F0BDC046CD
:101D7800001002400000311000080048F312000073
:101D88000910000000040048048000000000111041
:101D980083100000FEE7C04600B585B01648174B13
:101DA8000360002343608360C36001220261042151
:101DB80041618361C36103624362C221FF31816271
:101DC800C3620363426301F049FB002801D0FFF7B7
:101DD800E1FF0923019380235B01029380235B05C4
:101DE8000393054801A901F0FBFB002801D0FFF788
:101DF800D1FF05B000BDC046080D002000240140F9
:101E080008B50848084B0360002303714371436118
:101E180083610133036201F0EDFA002801D0FFF776
:101E2800B9FF08BD080C00200030024008B50E4874
:101E38000E4B03600E4B4360002383600122C26097
:101E4800036143618361C361036201F065FC00289B
:101E580001D0FFF79FFF0448002101F0C1FC0028D2
:101E680001D0FFF797FF08BD2C0C00200058004058
:101E78001A09102008B50B480B4B0360E1231B021D
:101E8800436000238360C36003610C224261836165
:101E9800C3610362436200F0B7FF002801D0FFF777
:101EA80079FF08BD980C00200044004008B50B4895
:101EB8000B4B0360E1235B02436000238360C36034
:101EC80003610C2242618361C3610362436200F0D3
:101ED8009BFF002801D0FFF75DFF08BD980B00208D
:101EE8000048004000B587B01D481E4B0360002322
:101EF80043607F2282608032C260036143618361F4
:101F080001F0B0F8002801D0FFF744FF01A9002331
:101F18000B704B708B70CB600B611148012201F084
:101F2800FDF8002801D0FFF735FF01236A4613703A
:101F3800537093700023D37009486946012201F059
:101F48006BF9002801D0FFF725FF0548002104227E
:101F580001F0CEF9002801D0FFF71CFF07B000BD43
:101F6800780C00200028004000B597B016230A938B
:101F7800153B0C930D930F9310220E9210920E3A6C
:101F88001292802212021392A022920314921593A5
:101F98000AA800F003F9002801D0FFF7FBFE072389
:101FA8000693053B079300230893099306A801218C
:101FB80000F09EFB002801D0FFF7ECFE80235B02B7
:101FC800019380235B00029301A800F057FC0028CE
:101FD80001D0FFF7DFFE00208021C904002200F0B5
:101FE80027FB00F035FCFA21890001F039FC00F0EC
:101FF80079F8042000F092F80120404200210022E4
:1020080000F034F817B000BD08B500F0A9F8FFF7E4
:10201800ABFFFFF717FEFFF7BFFEFFF7F1FEFFF775
:1020280005FFFFF727FFFFF741FFFFF75BFF08BD3D
:10203800084BDB691B06FBD582B2064B1A850A28BA
:1020480006D1044BDB691B06FBD50D22014B1A8513
:102058007047C0460048004008B5FFF7E9FF08BDD3
:1020680010B5041CFFF7F8FF201C10BD70B5002840
:1020780016DAC0B20F230340083B9B089B00124AA4
:10208800944663445A6803242040C000FC34251C4D
:102098008540AA438901214081400A435A6011E0E2
:1020A80083080A4CC0339B001A5903252840C000F6
:1020B800FC352E1C8640B243890129408140081C0A
:1020C8001043185170BDC04618ED00E000E100E073
:1020D8001F2318401E3B8340181C014B1860704793
:1020E80000E100E001380A4B98420FD8094A5060D5
:1020F80009490B6A1B021B0AC020000603430B6236
:102108000023936007331360002000E0012070472C
:10211800FFFFFF0010E000E000ED00E0042805D11B
:10212800054A116804230B43136004E0024A13684C
:1021380004218B431360704710E000E010B5041CC5
:1021480000F086FBFA21890001F08AFBFFF7CAFF3D
:1021580001204042211C0022FFF788FF002010BD0B
:1021680008B5064A116810230B4313600020FFF7D7
:10217800E5FFFEF7E9FE002008BDC046002002404A
:10218800024A1368013313607047C046540D00209B
:10219800014B18687047C046540D002070B582B0D6
:1021A800041C0368DB0768D5BF4B5B680C2213402F
:1021B800042B0DD0BC4B5B681340082B10D1BA4BD5
:1021C8005A68C0235B02134080225202934207D10F
:1021D800B54B1B689B0350D56368002B4DD1FCE1C0
:1021E8006368012B06D1B04A1368802149020B436A
:1021F800136022E0002B09D1AB4B1968AB4A0A40A7
:102208001A601968AA4A0A401A6016E0052B0BD111
:10221800A54B1A688021C9020A431A601A688021EE
:1022280049020A431A6008E09F4B19689F4A0A400E
:102238001A6019689E4A0A401A606368002B0ED01B
:10224800FFF7A6FF051C05E0FFF7A2FF401B642867
:1022580000D9C4E1944B1B689B03F5D50DE0FFF74B
:1022680097FF051C05E0FFF793FF401B642800D982
:10227800B7E18D4B1B689B03F5D423689B0755D5A5
:10228800894B5B680C221A420DD0874B5B68134060
:10229800082B19D1844B5A68C0235B021340802253
:1022A8001202934210D1804B1B689B0703D5E36849
:1022B800012B00D097E17C490B68F82293432269EF
:1022C800D20013430B6031E0E368002B1BD0764A41
:1022D800116801230B431360FFF75AFF051C05E043
:1022E800FFF756FF401B022800D97EE16E4B1B68A2
:1022F8009B07F5D56C490B68F82293432269D200F5
:1023080013430B6012E0684A136801218B43136082
:10231800FFF73EFF051C05E0FFF73AFF401B0228C8
:1023280000D964E1604B1B689B07F5D423681B0741
:1023380029D5E369002B13D05B4A516A01230B436B
:102348005362FFF725FF051C05E0FFF721FF401B3F
:10235800022800D94DE1544B5B6A9B07F5D512E082
:10236800514A536A01218B435362FFF711FF051C41
:1023780005E0FFF70DFF401B022800D93BE14A4B5F
:102388005B6A9B07F5D423685B077AD5464BDB6904
:10239800DB000BD4444AD16980235B051943D16122
:1023A800D26913400193019B012500E00025414BB0
:1023B8001B68DB0513D43F4A1368802149000B438F
:1023C8001360FFF7E5FE061C05E0FFF7E1FE801B42
:1023D800642800D911E1374B1B68DB05F5D5A368E4
:1023E800012B04D1304A116A0B43136220E0002B01
:1023F80009D12D4B1A6A01218A431A621A6A0331DC
:102408008A431A6214E0052B09D1274B196A042262
:102418000A431A62196A01220A431A6208E0224B27
:102428001A6A01218A431A621A6A03318A431A62B4
:10243800A368002B0FD0FFF7ABFE061C06E0FFF7E2
:10244800A7FE801B1C4B984200D9D8E0164B1B6A8C
:102458009B07F4D50EE0FFF79BFE061C06E0FFF78E
:1024680097FE801B144B984200D9CAE00E4B1B6A9A
:102478009B07F4D4012D04D10B4AD1690F4B0B40B3
:10248800D3612368DB0654D56369012B2CD1064B35
:10249800596B04220A435A63596B01220A435A634F
:1024A800FFF776FE051C11E000100240FFFFFEFF5B
:1024B800FFFFFBFF0070004088130000FFFFFFEFE5
:1024C800FFF766FE401B022800D99CE0554B5B6B6A
:1024D8009B07F5D553494B6BF82293431A1CA36904
:1024E800DB0013434B6324E005330CD14D494B6BA0
:1024F800042293434B634B6BF4329343A269D2009B
:1025080013434B6315E0474B596B04220A435A6344
:102518005A6B01218A435A63FFF73AFE051C04E00F
:10252800FFF736FE401B02286FD83E4B5B6B9B07BC
:10253800F6D4236A002B6AD03A4A52680C210A4022
:10254800082A66D0022B34D1364A1168364B0B4024
:102558001360FFF71DFE051C04E0FFF719FE401B82
:10256800022858D82F4B1B689B01F6D42D4BDA6AEA
:102578000F218A43E16A0A43DA6258682B4A1040FD
:10258800A26A616A0A4302435A601A6880214904B0
:102598000A431A60FFF7FCFD041C04E0FFF7F8FD8E
:1025A800001B022839D81F4B1B689B01F6D5002059
:1025B80036E01C4A11681C4B0B401360FFF7E8FD1E
:1025C800041C04E0FFF7E4FD001B022827D8154B84
:1025D8001B689B01F6D4002022E0012020E00320A4
:1025E8001EE003201CE001201AE0032018E003206D
:1025F80016E0032014E0032012E0032010E003207B
:102608000EE003200CE003200AE0032008E000208D
:1026180006E0012004E0032002E0032000E003209C
:1026280002B070BD00100240FFFFFFFEFF7FC2FF37
:1026380070B586B00E1C151C002303930593023356
:10264800029301330493FD3301930B4C6269802399
:102658009B021A436261626913400093009B9020B9
:10266800C00501A900F0A2F96268044B1340354384
:102678001D43656006B070BD00100240FFFFFF807B
:1026880010B588B0174C04A8211C1022FFF7D4F805
:10269800211C103168461022FFF7CEF8124B5A68F9
:1026A8000C231340082B1AD193021B0F04A9CC5CEE
:1026B8000D4BDB6A0F210B406946C95CC0235B02E6
:1026C8001A4080235B029A4204D1084801F0C8F8F6
:1026D800604305E0054801F0C3F8604300E00348A3
:1026E80008B010BD2C3D00080010024000127A000E
:1026F80070B5514B1B68012213408B420AD24E4AD7
:1027080013680124A3430B431360136823408B42CF
:1027180000D080E003689B0706D5484A5368F02438
:10272800A3438468234353600C1C051C0368DB0720
:1027380047D54268012A04D1404B1B689B030BD440
:102748006BE0022A04D13D4B1B689B0104D466E070
:102758003A4B1B689B0764D538494B680320834371
:1027680013434B60FFF714FD061C6B68012B0DD15A
:1027780005E0FFF70DFD801B314B984253D82F4BD6
:102788005B680C221340042BF3D11AE0022B13D1FF
:1027980005E0FFF7FDFC801B294B984245D8274BE5
:1027A8005B680C221340082BF3D10AE0FFF7F0FC1A
:1027B800831B234A93423AD8204B5B680C221A4267
:1027C800F4D11D4B1B6801221340A34209D91A4AB0
:1027D800136801218B432343136013680B40A34202
:1027E80027D12B685B0706D514494A68154B134057
:1027F800EA6813434B60FFF743FF104B5B681B0607
:102808001B0F114AD35CD840104B18600020FFF70B
:1028180095FC00200EE001200CE001200AE00120D8
:1028280008E0012006E0032004E0032002E0032082
:1028380000E0012070BDC0460020024000100240A8
:1028480088130000FFF8FFFF143D0008280100204E
:10285800014B18687047C0462801002008B5FFF7EB
:10286800F7FF044B5B685B055B0F034AD35CD840FA
:1028780008BDC04600100240243D000870B582B073
:10288800041C0368DB035ED5424BDB69DB000BD419
:10289800404AD16980235B051943D161D26913404D
:1028A8000193019B012500E000253B4B1B68DB05DC
:1028B80012D4394A1368802149000B431360FFF78B
:1028C80067FC061C04E0FFF763FC801B64285AD8E9
:1028D800314B1B68DB05F6D52E4B1A6AC0239B00CB
:1028E800134023D0C022920061680A409A421DD04A
:1028F800284B186A294A0240196A80267602314311
:1029080019621E6A2649314019621A62C3070DD539
:10291800FFF73EFC061C05E0FFF73AFC801B214B45
:10292800984232D81B4B1B6A9B07F5D5194A116A86
:102938001A4B0B4061680B431362012D03D1D16917
:10294800194B0B40D3612368DB0706D5114A136B7B
:1029580003218B43A1680B43136323689B0606D5A9
:102968000C4A136B10218B43E1680B4313632368F4
:102978009B030CD507490B6B8022934322691343B1
:102988000B63002004E0032002E0032000E00020A5
:1029980002B070BD0010024000700040FFFCFFFF55
:1029A800FFFFFEFF88130000FFFFFFEFF0B54F4663
:1029B8004646C0B485B00023A7E001259D40A9463E
:1029C8002A4000D1A0E04C68022C01D0122C0ED174
:1029D800DC080834A600375807241C40A4000F253B
:1029E800A540AF430D69A5402C1C3C4334500768F3
:1029F8005C00A0460326341C4546AC40E44327400F
:102A08004D682E404546AE40374307604F687E1EEE
:102A1800012E03D9112F01D0122F11D18768274019
:102A2800CD684646B5402F43876047684D46AF435B
:102A38004D68ED06ED0F019EB5402E1C3E434660E5
:102A4800C5682C408D684646B5402C43C4604C6828
:102A5800E40059D5324DAE6901273E43AE61AC69F9
:102A68003C400394039C9C08A51CAD002D4EAE5918
:102A780003251D40AD000E37AF40BE439027FF052C
:102A8800B84210D0284FB8420BD0284FB84206D0D1
:102A9800274FB84201D1032706E0052704E00227A3
:102AA80002E0012700E00027AF403D1C3543023417
:102AB800A4001C4EA5511F4C2568D4432E1C26404B
:102AC8004F68FF0301D515432E1C1A4D2E606D6803
:102AD8002E1C26404F68BF0301D515432E1C154DEB
:102AE8006E60AD682E1C26404F68FF0201D5154365
:102AF8002E1C104DAE60ED682C404E68B60201D514
:102B08002A43141C0B4AD46001330A680193141C2D
:102B1800DC4000D051E705B00CBC90469946F0BDAA
:102B2800001002400000014000040048000800486E
:102B3800000C004800040140002A01D0816100E037
:102B48008162704738B5041C83680269134342697F
:102B58001343C2691A4301680868634B034013436F
:102B68000B6022685168614B0B40E1680B4353606E
:102B7800A269236A1A43216888685D4B034013439E
:102B88008B6025685B4B9D4214D15B4B1B6B03220A
:102B98001340012B08D0002B04D0022B06D0032BA6
:102BA80013D005E0002317E0042315E0082313E001
:102BB800102311E0514B9D4209D0514B9D4208D042
:102BC800504B9D4207D1002306E0022304E0002376
:102BD80002E0002300E0102380221202E169914202
:102BE80044D1022B14D002D8002B05D033E0042B9B
:102BF80019D0082B23D02EE0FFF730FE4000636881
:102C08005B08C018616800F02BFE83B2002024E046
:102C1800636858083C4B9C466044616800F020FE9D
:102C280083B2002019E0FFF72BFD400063685B08C2
:102C3800C018616800F014FE83B200200DE06368DC
:102C4800580880235B029C466044616800F008FED7
:102C580083B2002001E0012000230F22191C9143B8
:102C68001B075B0F0B432268D3603CE0022B14D098
:102C780002D8002B05D035E0042B1AD0082B24D01D
:102C880030E0FFF7EBFD61684B08C01800F0E8FD85
:102C98000004000CE860002025E0616848081B4B30
:102CA8009C46604400F0DCFD0004000CE860002055
:102CB80019E0FFF7E5FC61684B08C01800F0D0FD8B
:102CC8000004000CE86000200DE0616848088023DB
:102CD8001B029C46604400F0C3FD0004000CE86041
:102CE800002000E0012038BDF369FFEFFFCFFFFFB0
:102CF800FFF4FFFF0038014000100240004400408C
:102D080000480040004C00400024F40000127A0003
:102D1800436ADB0706D5026851682C4B0B40816A71
:102D28000B435360436A9B0706D502685168284BDA
:102D38000B40C16A0B435360436A5B0706D50268C0
:102D48005168244B0B40016B0B435360436A1B07CC
:102D580006D502685168204B0B40416B0B4353600A
:102D6800436ADB0606D5026891681C4B0B40816BF1
:102D78000B439360436A9B0606D502689168184B1B
:102D88000B40C16B0B439360436A5B0612D5026824
:102D98005168144B0B40016C0B43536080235B0359
:102DA800026C9A4206D1026851680F4B0B40416C85
:102DB8000B435360436A1B0606D501684A680B4BF0
:102DC8001340826C13434B607047C046FFFFFDFF02
:102DD800FFFFFEFFFFFFFBFFFF7FFFFFFFEFFFFF90
:102DE800FFDFFFFFFFFFEFFFFFFF9FFFFFFFF7FF83
:102DF8000023C366202269214254013142544832DB
:102E0800835400207047C04610B500282FD0041CFA
:102E18006923C35C002B04D100226833C254FEF737
:102E280029F924226923E2542268136801218B437B
:102E38001360201CFFF786FE012819D0636A002B57
:102E480002D0201CFFF764FF22685168094B0B4031
:102E580053602268936808218B4393602268116845
:102E680001230B431360201CFFF7C2FF00E0012081
:102E780010BDC046FFF7FFFF10B50022044BDA6112
:102E8800044A1469012323431361018010BDC0461D
:102E9800580D0020002002400C4BDB68DB0606D5ED
:102EA8000B4AD16902230B43D361102300E00023AE
:102EB800064AD268520706D50549C8690122024365
:102EC800CA6104221343014AD360704700200240BC
:102ED800580D002038B5041CFFF75AF9051C08E006
:102EE800631C06D0002C1BD0FFF752F9401BA042F0
:102EF80018D80E4BDB68DB07F2D40C4BDB689B065B
:102F080002D52022094BDA60084BDB68DB0603D4C4
:102F1800064BDB685B0707D5FFF7BEFF012004E01F
:102F2800032002E0032000E0002038BD002002401A
:102F3800F0B5474680B4234C247E012C3ED01E1C9D
:102F480090460D1C041C01221E4B1A761E48FFF7E2
:102F5800C1FF00282ED1012C03D0022C03D1022757
:102F680002E0012700E00427002421E0600023019B
:102F780020225242991803D4331CCB40191C07E075
:102F88002022D21A311C91400A1C4146D9401143D3
:102F9800401989B2FFF770FF0B48FFF79BFF0B4AF8
:102FA800136901218B431361002803D10134E4B272
:102FB800BC42DBD30022034B1A7600E0022004BC9B
:102FC8009046F0BD580D002050C30000002002407C
:102FD8000022064BDA61064B196902320A431A616C
:102FE8005861196940220A431A617047580D002038
:102FF8000020024038B5041C0268D368A0218B4326
:10300800D360FFF7C5F8051C06E0FFF7C1F8401BC1
:10301800FA239B00984205D82368DB689B06F4D501
:10302800002000E0032038BD38B50368DA6852068E
:1030380014D4041C01225242DA60FFF7A9F8051CD7
:1030480006E0FFF7A5F8401BFA239B00984207D833
:103058002368DB685B06F4D5002002E0002000E06E
:10306800032038BD38B5002846D0041C437F002B08
:1030780002D10377FDF7E6FF022363772368CA22AC
:103088005A622368773A5A62201CFFF7CDFF00285E
:1030980006D02368FF225A620423637701202CE0BC
:1030A80022689168154B0B409360226891686368A9
:1030B80025692B4365692B430B4393602368E268BA
:1030C8001A6122681169A3681B040B431361226803
:1030D800D36880218B43D3602268116C084B0B4066
:1030E80013642268136CA1690B4313642368FF22DD
:1030F8005A620123637700E0012038BDBFFF8FFFCC
:10310800FFFFFBFF002302E001330A38C0B20928A1
:10311800FAD81B01DBB218437047C046F8B5037FE5
:10312800012B71D00D1C041C012303770133437755
:10313800002A16D103689B685B0601D40023CB7074
:103148002878FFF7DFFF06046878FFF7DBFF000247
:103158000643A878FFF7D6FF0643EB781B041E4307
:103168000FE003689B685B0601D40023CB702E78C0
:1031780036046B781B021E43A8780643EB781B04C1
:103188001E432368CA225A622368773A5A62201C6F
:10319800FFF74AFF071E08D02368FF225A6204235C
:1031A80063770023237701272FE023681848064018
:1031B8001E6022689168174B0B40936021688868ED
:1031C800EB682A69134303438B602268D368802124
:1031D8008B43D36023689B689B060DD4201CFFF7A4
:1031E80009FF002808D02368FF225A620423637766
:1031F80000232377012708E02368FF225A6201236E
:1032080063770023237700E00227381CF8BDC04607
:103218007F7F7F00FFFFFBFF70B5037F012B62D02C
:103228000123037701334377002A06D14B78DC0664
:1032380003D51024A3430A334B700D1C041C002A29
:1032480010D1C878FFF75EFF06046878FFF75AFFC9
:1032580000020643A878FFF755FF06432B785B0367
:103268001E4309E0CE7836044B781B021E4388784B
:1032780006430B785B031E432368CA225A622368FD
:10328800773A5A62201CFFF7CFFE051E08D0236844
:10329800FF225A620423637700232377012523E062
:1032A8002368124806405E602268D36880218B43F9
:1032B800D36023689B689B060DD4201CFFF79AFEF9
:1032C800002808D02368FF225A620423637700236A
:1032D8002377012508E02368FF225A6201236377D8
:1032E8000023237700E00225281C70BD3FFFFF0064
:1032F800F8B5037F012B74D0141C0D1C061C012388
:103308000377013343770368CA225A620368773A1E
:103318005A6203689B685B0517D5FEF739FF071CDF
:103328000FE0FEF735FFC01BFA239B00984208D92F
:103338003368FF225A62032373770023337703200D
:1033480050E03368DB685B07EBD432689168264B42
:103358000B4093603268D368FF210B4023490B432D
:10336800D360FEF715FF071C0FE0FEF711FFC01B27
:10337800FA239B00984208D93368FF225A62032334
:1033880073770023337703202CE03368DA68520719
:10339800EBD55D613268936807218B43936033688E
:1033A8009A6814439C60124B1968802040030143BB
:1033B80019609A6802439A60326893688021C9014B
:1033C8000B439360326893688021C9000B43936074
:1033D8003368FF225A620123737700233377002072
:1033E80000E00220F8BDC046FFFBFFFF7FFBFFFFA8
:1033F8000004014010B5002829D0041C437F002B8D
:1034080002D10377FDF7E2FD02236377201C00F069
:1034180023F800281DD16379002B04D123680122E9
:1034280052421A6102E0236822691A61226893688D
:1034380060218B4361690B43936022689368802104
:103448008B43A1690B4393600123637702E001205A
:1034580000E0012010BDC0460020704738B50028A4
:1034680000D1B5E0041C436C002B04D183644022D6
:103478008354FDF789FD636CDB0600D5A2E0226862
:10348800936804210B4000D09CE0606C51490140D6
:10349800022001436164916801300140012907D18C
:1034A8001168C90706D4D168090405D4002104E0CD
:1034B800002102E0012100E0012100290CD1D1689E
:1034C80018208143A0680143D16021680A699200ED
:1034D8009208606802430A612168C8683E4A02404F
:1034E800CA60A2699103E269D2030A43206A4103D0
:1034F8000A43616B012902D08021490100E0191CAF
:103508000A43E1680A432169022900D104231343CD
:10351800226B52001343626A012A0DD1002803D19D
:1035280080225202134307E0616C20220A4362643E
:10353800A16C01220A43A264A26AC221FF318A4215
:1035480002D0E16A0A4313432168CA681A43CA6071
:10355800A26B802149058A420DD0012A0BD0022A8C
:1035680009D0032A07D0042A05D0052A03D0062A41
:1035780001D0072A0AD12068416907229143416195
:1035880021684869A56B2A4002434A612268D168CC
:10359800124A0A409A4209D10023A364636C0322A9
:1035A8009343023A13436364002012E0636C1222CF
:1035B8009343023A13436364A26C01231343A36445
:1035C800012006E0626C102313436364012000E0CD
:1035D800012038BDFDFEFFFF1902FEFFE7FF3F8314
:1035E80030B583B0002301934033C35C012B00D175
:1035F80082E0041C01224023C25403689A685207DF
:103608006BD43F4A4868904250D09D6A0120021C02
:10361800086882402A439A62A36B8022520593422B
:103628001ED0012B1CD0022B1AD0032B18D0042B30
:1036380016D0052B14D0062B12D0072B10D02268D9
:103648005369072003408868984209D050690723C6
:1036580098435061226850698D682B400343536139
:103668000B681A1C103A012A3DD8264A1268102BFA
:1036780002D180231B0401E08023DB031343214A8A
:1036880013600B68102B30D11F4B18681F4900F0CE
:10369800E7F8830018184000019002E0019B013B05
:1036A8000193019B002BF9D1002021E09A6A0120A7
:1036B8000D68A84082439A620B681A1C103A012AC6
:1036C80015D8104A1268102B01D1114B00E0114B8C
:1036D80013400C4A136000200AE0426C2023134375
:1036E8004364012004E0002002E0002000E0002004
:1036F80000224023E25400E0022003B030BDC0465F
:1037080001100000082701402801002040420F0056
:10371800FFFF7FFFFFFFBFFF10B5002858D0041C34
:103728004123C35C002B04D100224033C254FDF76F
:1037380061FC24224123E2542268136801218B434F
:1037480013602268234B61680B40136122689168FB
:10375800214B0B409360E368012B06D1226880233C
:103768001B02A1680B43936005E0226884231B02B7
:10377800A1680B439360E368022B03D1236880227E
:1037880012015A602268536814490B435360226837
:10379800D168114B0B40D3602168226963691A43D1
:1037A800A3691B021343CB602268E369216A0B43B8
:1037B80013602268116801230B43136000236364BC
:1037C80020214122A15423630132A354002000E0A8
:1037D800012010BDFFFFFFF0FF7FFFFF0080000208
:1037E800F0B54123C35C202B20D12033C35C012BCF
:1037F8001ED0402401230355412524224255066842
:1038080032689A433260066837680A4A3A4032603A
:103818000268166831431160026811680B4313602F
:103828002023435500230355002002E0022000E036
:103838000220F0BDFFEFFFFFFEE7C04608B50348D2
:10384800FEF756F80120FFF7F7FFC0464C3D000889
:10385800031C00E001331A78002AFBD1181A7047BC
:10386800002243088B4274D303098B425FD3030AB7
:103878008B4244D3030B8B4228D3030C8B420DD3CA
:10388800FF22090212BA030C8B4202D31212090258
:1038980065D0030B8B4219D300E0090AC30B8B4296
:1038A80001D3CB03C01A5241830B8B4201D38B0344
:1038B800C01A5241430B8B4201D34B03C01A5241E9
:1038C800030B8B4201D30B03C01A5241C30A8B422C
:1038D80001D3CB02C01A5241830A8B4201D38B0217
:1038E800C01A5241430A8B4201D34B02C01A5241BB
:1038F800030A8B4201D30B02C01A5241CDD2C3092D
:103908008B4201D3CB01C01A524183098B4201D3A8
:103918008B01C01A524143098B4201D34B01C01A93
:10392800524103098B4201D30B01C01A5241C3080B
:103938008B4201D3CB00C01A524183088B4201D37A
:103948008B00C01A524143088B4201D34B00C01A66
:103958005241411A00D20146524110467047FFE7D2
:1039680001B5002000F0FCF802BDC0460029F7D0E0
:1039780003B5FFF775FF0EBC4243891A1847C046C6
:1039880003460B437FD4002243088B4274D30309B8
:103998008B425FD3030A8B4244D3030B8B4228D359
:1039A800030C8B420DD3FF22090212BA030C8B427F
:1039B80002D31212090265D0030B8B4219D300E01F
:1039C800090AC30B8B4201D3CB03C01A5241830BA4
:1039D8008B4201D38B03C01A5241430B8B4201D354
:1039E8004B03C01A5241030B8B4201D30B03C01A7D
:1039F8005241C30A8B4201D3CB02C01A5241830AF7
:103A08008B4201D38B02C01A5241430A8B4201D325
:103A18004B02C01A5241030A8B4201D30B02C01A4F
:103A28005241CDD2C3098B4201D3CB01C01A5241B6
:103A380083098B4201D38B01C01A524143098B423F
:103A480001D34B01C01A524103098B4201D30B0128
:103A5800C01A5241C3088B4201D3CB00C01A52414D
:103A680083088B4201D38B00C01A524143088B4212
:103A780001D34B00C01A5241411A00D201465241AB
:103A8800104670475DE0CA0F00D04942031000D3CA
:103A98004042534000229C4603098B422DD3030A1F
:103AA8008B4212D3FC22890112BA030A8B420CD32F
:103AB800890192118B4208D3890192118B4204D358
:103AC80089013AD0921100E08909C3098B4201D3D8
:103AD800CB01C01A524183098B4201D38B01C01A12
:103AE800524143098B4201D34B01C01A5241030989
:103AF8008B4201D30B01C01A5241C3088B4201D338
:103B0800CB00C01A524183088B4201D38B00C01AE4
:103B18005241D9D243088B4201D34B00C01A5241BB
:103B2800411A00D20146634652415B10104601D348
:103B38004042002B00D54942704763465B1000D3D2
:103B4800404201B5002000F00BF802BD0029F8D072
:103B580003B5FFF715FF0EBC4243891A1847C04644
:103B68007047C046000018086C643E7273745F6C3E
:103B7800696272650A0000006170705F636F72723B
:103B880075707465640A00007573622C302C302CD3
:103B9800000000004C532D494E2D42534C0A0000A2
:103BA8006677646F776E6C6F61645F786D6C000028
:103BB800496E7465726E65742C302C302C000000D0
:103BC8000A6B656C6C6F5F6C6F6164657220763A26
:103BD800257820623A256420736E3A25323873209E
:103BE8006C3A25780A0000006661635F7273740A94
:103BF8000000000075700A00780A00005752495406
:103C0800455F6677646F776E6C6F61645F786D6C23
:103C18002C687474703A2F2F6C7766772E73756ED4
:103C280075702E636F2F6F74612F6B656C6C6F2EC0
:103C3800312F00006C320A006C330A006C340A0021
:103C4800494E202000000000544F2042494720548C
:103C58004F20444953504C415900000053656E644D
:103C68005F746F5F4D657373616765207768696C12
:103C780065206D617962652062736C206D6F646583
:103C88000A0000004F55542000000000630A00009D
:103C980065300A0065310A006165310A00000000DC
:103CA800667720746F6F206269670A00777269749B
:103CB800655F7461696C203078257820256420253B
:103CC8003034780A000000006572726F722025781F
:103CD8002025642025640A00070504FF2020080029
:103CE8006D61696E28617267633D25752C2061726C
:103CF80067763D5B000000002C200000222573221F
:103D0800000000005D293B0A0000000000000000E0
:103D18000000000001020304060708090000000073
:103D28000102030402030405060708090A0B0C0D27
:103D38000E0F10100102030405060708090A0B0CF0
:103D48000D0E0F1061626F727428292C2065786936
:0C3D580074696E672E2E2E0043000000E0
:103D640078563412FF000000043C00085912000881
:103D74001513000800127A00000000000000000083
:103D8400000000000000000000000000000000002F
:103D94000000000000000000603D0008000000007A
:103DA400000000000000000000000000000000000F
:103DB40000000000000000000000000000000000FF
:103DC40000000000000000000000000000000000EF
:103DD4000000000000000000000000002C01002092
:043DE4003254769847
:043DFC000D000000B6
:04000005080000C12E
:00000001FF
